00.00 FGE50LMALV    EXTRACT_41    20210215093813244097205.00LMPT0000M41       FGX10     Recepcao N: 00013185-000                                                        358010003           00000000                                                                                                                                                                                                                                                                                                                                                                                                                    
41.00 00013185000335544                                  PVCSTD1358202701        300           202102120000202102121100202102150937398                    10                 03                                       00000000   13276000000006 CLHU4532066                                                                                                                                                                                                                                                                                                                                                             
41.20 00013185000335544                        00009358              82232801         00000000204UNI                 0000000   000000000000000000000000000   000000000   0000000000000000010000000000000000000                    0000000000               00001                                                                                                                                                                                                                                                                                                                                                        
41.20 00013185000335544                        00004358              82232802         00000000170UNI                 0000000   000000000000000000000000000   000000000   0000000000000000010000000000000000000                    0000000000               00001                                                                                                                                                                                                                                                                                                                                                        
41.20 00013185000335544                        00003358              82232803         00000000289UNI                 0000000   000000000000000000000000000   000000000   0000000000000000010000000000000000000                    0000000000               00001                                                                                                                                                                                                                                                                                                                                                        
41.20 00013185000335544                        00008358              82232807         00000000126UNI                 0000000   000000000000000000000000000   000000000   0000000000000000010000000000000000000                    0000000000               00001                                                                                                                                                                                                                                                                                                                                                        
41.20 00013185000335544                        00005358              82232808         00000000154UNI                 0000000   000000000000000000000000000   000000000   0000000000000000010000000000000000000                    0000000000               00001                                                                                                                                                                                                                                                                                                                                                        
41.20 00013185000335544                        00002358              82232830         00000000007UNI                 0000000   000000000000000000000000000   000000000   0000000000000000010000000000000000000                    0000000000               00001                                                                                                                                                                                                                                                                                                                                                        
41.20 00013185000335544                        00006358              82232843         00000000360UNI                 0000000   000000000000000000000000000   000000000   0000000000000000010000000000000000000                    0000000000               00001                                                                                                                                                                                                                                                                                                                                                        
41.20 00013185000335544                        00007358              82509560         00000000056UNI                 0000000   000000056000000000000000000   000000000   0000000000000000010000336000020210215                    0000000000               00001                                                                                                                                                                                                                                                                                                                                                        
41.30 00013185000335544                        00007000000002000000001                    000000000                    2021021200000000560000358110763421   0000000000000000000000000000PVCR100006840358              82509560         0000000000000931200120000                                                                                                                                                                                                                                                                                                                                                        
41.30 00013185000335544                        00007000000002000000001                    000000000                    2021021200000000560000358110763438   0000000000000000000000000000PVCR100007040358              82509560         0000000000000931200120000                                                                                                                                                                                                                                                                                                                                                        
41.30 00013185000335544                        00007000000002000000001                    000000000                    2021021200000000560000358110763445   0000000000000000000000000000PVCR100007440358              82509560         0000000000000931200120000                                                                                                                                                                                                                                                                                                                                                        
41.30 00013185000335544                        00007000000002000000001                    000000000                    2021021200000000560000358110763452   0000000000000000000000000000PVCR100007640358              82509560         0000000000000931200120000                                                                                                                                                                                                                                                                                                                                                        
41.30 00013185000335544                        00007000000002000000001                    000000000                    2021021200000000560000358110763469   0000000000000000000000000000PVCR100007840358              82509560         0000000000000931200120000                                                                                                                                                                                                                                                                                                                                                        
41.30 00013185000335544                        00007000000002000000001                    000000000                    2021021200000000560000358110763476   0000000000000000000000000000PVCR110001610358              82509560         0000000000000931200120000                                                                                                                                                                                                                                                                                                                                                        
41.30 00013185000335544                        00007000000002000000001                    000000000                    2021021200000000560000358110763483   0000000000000000000000000000PVCR080006740358              82509560         0000000000000931200120000                                                                                                                                                                                                                                                                                                                                                        
41.30 00013185000335544                        00007000000002000000001                    000000000                    2021021200000000560000358110763490   0000000000000000000000000000PVCR080006940358              82509560         0000000000000931200120000                                                                                                                                                                                                                                                                                                                                                        
41.30 00013185000335544                        00007000000002000000001                    000000000                    2021021200000000560000358110763506   0000000000000000000000000000PVCR080007340358              82509560         0000000000000931200120000                                                                                                                                                                                                                                                                                                                                                        
41.30 00013185000335544                        00007000000002000000001                    000000000                    2021021200000000560000358110763513   0000000000000000000000000000PVCR080007540358              82509560         0000000000000931200120000                                                                                                                                                                                                                                                                                                                                                        
41.30 00013185000335544                        00007000000002000000001                    000000000                    2021021200000000560000358110763520   0000000000000000000000000000PVCR110001810358              82509560         0000000000000931200120000                                                                                                                                                                                                                                                                                                                                                        
41.30 00013185000335544                        00007000000002000000001                    000000000                    2021021200000000560000358110763537   0000000000000000000000000000PVCR110001910358              82509560         0000000000000931200120000                                                                                                                                                                                                                                                                                                                                                        
41.30 00013185000335544                        00007000000002000000001                    000000000                    2021021500000000560000358110765074   0000000000000000000000000000PVCR110002110358              82509560         0000000000000931200120000                                                                                                                                                                                                                                                                                                                                                        
41.30 00013185000335544                        00007000000002000000001                    000000000                    2021021500000000560000358110765081   0000000000000000000000000000PVCR110002310358              82509560         0000000000000931200120000                                                                                                                                                                                                                                                                                                                                                        
41.30 00013185000335544                        00007000000002000000001                    000000000                    2021021500000000560000358110765098   0000000000000000000000000000PVCR110001820358              82509560         0000000000000931200120000                                                                                                                                                                                                                                                                                                                                                        
41.30 00013185000335544                        00007000000002000000001                    000000000                    2021021500000000560000358110765104   0000000000000000000000000000PVCR090006740358              82509560         0000000000000931200120000                                                                                                                                                                                                                                                                                                                                                        
41.30 00013185000335544                        00007000000002000000001                    000000000                    2021021500000000560000358110765111   0000000000000000000000000000PVCR090006940358              82509560         0000000000000931200120000                                                                                                                                                                                                                                                                                                                                                        
41.30 00013185000335544                        00007000000002000000001                    000000000                    2021021500000000560000358110765128   0000000000000000000000000000PVCR090007140358              82509560         0000000000000931200120000                                                                                                                                                                                                                                                                                                                                                        
41.30 00013185000335544                        00007000000002000000001                    000000000                    2021021500000000560000358110765135   0000000000000000000000000000PVCR090007340358              82509560         0000000000000931200120000                                                                                                                                                                                                                                                                                                                                                        
41.30 00013185000335544                        00007000000002000000001                    000000000                    2021021500000000560000358110765142   0000000000000000000000000000PVCR090007540358              82509560         0000000000000931200120000                                                                                                                                                                                                                                                                                                                                                        
41.30 00013185000335544                        00007000000002000000001                    000000000                    2021021500000000560000358110765159   0000000000000000000000000000PVCR090007740358              82509560         0000000000000931200120000                                                                                                                                                                                                                                                                                                                                                        
41.30 00013185000335544                        00007000000002000000001                    000000000                    2021021500000000560000358110765166   0000000000000000000000000000PVCR090006840358              82509560         0000000000000931200120000                                                                                                                                                                                                                                                                                                                                                        
41.30 00013185000335544                        00007000000002000000001                    000000000                    2021021500000000560000358110765463   0000000000000000000000000000PVCR090007040358              82509560         0000000000000931200120000                                                                                                                                                                                                                                                                                                                                                        
41.30 00013185000335544                        00007000000002000000001                    000000000                    2021021500000000560000358110765470   0000000000000000000000000000PVCR090007240358              82509560         0000000000000931200120000                                                                                                                                                                                                                                                                                                                                                        
41.30 00013185000335544                        00007000000002000000001                    000000000                    2021021500000000560000358110765487   0000000000000000000000000000PVCR090007440358              82509560         0000000000000931200120000                                                                                                                                                                                                                                                                                                                                                        
41.30 00013185000335544                        00007000000002000000001                    000000000                    2021021500000000560000358110765494   0000000000000000000000000000PVCR090007640358              82509560         0000000000000931200120000                                                                                                                                                                                                                                                                                                                                                        
41.30 00013185000335544                        00007000000002000000001                    000000000                    2021021500000000560000358110765500   0000000000000000000000000000PVCR090007840358              82509560         0000000000000931200120000                                                                                                                                                                                                                                                                                                                                                        
41.30 00013185000335544                        00007000000002000000001                    000000000                    2021021500000000560000358110765517   0000000000000000000000000000PVCR080007740358              82509560         0000000000000931200120000                                                                                                                                                                                                                                                                                                                                                        
41.99 00013185000335544                        00080002800000560000001                                                                                                                                                                                                                                                                                                                                                                                                                                                                                                                                                  
99.00 FGE50LMALV    M41           20210215093813244097200000038                                                                                                                                                                                                                                                                                                                                                                                                                                                                                                                                                         
