00.00 FGE50LMALV    EXTRACT_41    20210105151711239164805.00LMPT0000M41       FGX10     Recepcao N: 00011382-000                                                        358010003           00000000                                                                                                                                                                                                                                                                                                                                                                                                                    
41.00 00011382000269670                                  ARRSTD1358204922        1             202012301400202012301400202101051516192                    10                 03                                       00000000   13276000000006 MSKU3473851                                                                                                                                                                                                                                                                                                                                                             
41.20 00011382000269670                        00011358              79783480         00000000504UNI                 0000000   000000504000000000000000000   000000000   0000000000000000010000012801620210104                    000000000000010          00024                                                                                                                                                                                                                                                                                                                                                        
41.30 00011382000269670                        00011000000432000400024                    000000000                    2021010400000000560000358110630624CAS0000000000000000000000000000ARRB120008120358              79783480         0000000000001350000109728                                                                                                                                                                                                                                                                                                                                                        
41.30 00011382000269670                        00011000000072000400024                    000000000                    2021010400000000560000358110630631LIT0000000000000000000000000000ARRB120005200358              79783480         0000000000000225000018288                                                                                                                                                                                                                                                                                                                                                        
41.30 00011382000269670                        00011000000072000400024                    000000000                    2021010400000000560000358110630631   0000000000000000000000000000ARRB120005200358              79783480         0000000000000225000018288                                                                                                                                                                                                                                                                                                                                                        
41.99 00011382000269670                        00180002600002930000018                                                                                                                                                                                                                                                                                                                                                                                                                                                                                                                                                  
99.00 FGE50LMALV    M41           20210105151711239164800000046                                                                                                                                                                                                                                                                                                                                                                                                                                                                                                                                                         
