00.00 FGE50LMALV    EXTRACT_41    20201229085117238291905.00LMPT0000M41       FGX10     Recepcao N: 00012649-000                                                        358010003           00000000                                                                                                                                                                                                                                                                                                                                                                                                                    
41.00 00012649000330959                                  ADASTD1358204286        200           202012220000202012220700202012220802293                    10                 03                                       00000000   18425432000008 43ZH51                                                                                                                                                                                                                                                                                                                                                                  
41.20 00012649000330959                        00002358              19474490         00000000006UNI                 0000000   000000006000000000000000000   000000000   0000000000000000010000001920020201222                    0000000000               00001                                                                                                                                                                                                                                                                                                                                                        
41.30 00012649000330959                        00002000000006000000001                    000000000                    2020122200000000560000358110621929   0000000000000000000000000000ADAH150008520358              19474490         0000000000000192000019200                                                                                                                                                                                                                                                                                                                                                        
41.20 00012649000330959                        00005358              19475085         00000000006UNI                 0000000   000000006000000000000000000   000000000   0000000000000000010000005760020201222                    0000000000               00001                                                                                                                                                                                                                                                                                                                                                        
41.30 00012649000330959                        00005000000006000000001                    000000000                    2020122200000000560000358110621936   0000000000000000000000000000ADAH150006200358              19475085         0000000000000576000057600                                                                                                                                                                                                                                                                                                                                                        
41.20 00012649000330959                        00001358              19475183         00000000005UNI                 0000000   000000005000000000000000000   000000000   0000000000000000010000005000020201222                    0000000000               00001                                                                                                                                                                                                                                                                                                                                                        
41.30 00012649000330959                        00001000000005000000001                    000000000                    2020122200000000560000358110621943   0000000000000000000000000000ADAH150008920358              19475183         0000000000000500000050000                                                                                                                                                                                                                                                                                                                                                        
41.20 00012649000330959                        00003358              81945517         00000000006UNI                 0000000   000000006000000000000000000   000000000   0000000000000000010000004320020201222                    0000000000               00001                                                                                                                                                                                                                                                                                                                                                        
41.30 00012649000330959                        00003000000006000000001                    000000000                    2020122200000000560000358110621950   0000000000000000000000000000ADAH150007720358              81945517         0000000000000432000043200                                                                                                                                                                                                                                                                                                                                                        
41.20 00012649000330959                        00004358              81945520         00000000002UNI                 0000000   000000002000000000000000000   000000000   0000000000000000010000002920020201222                    0000000000               00001                                                                                                                                                                                                                                                                                                                                                        
41.30 00012649000330959                        00004000000002000000001                    000000000                    2020122200000000560000358110621967   0000000000000000000000000000ADAH180009320358              81945520         0000000000000292000029200                                                                                                                                                                                                                                                                                                                                                        
41.99 00012649000330959                        00050000500000250000005                                                                                                                                                                                                                                                                                                                                                                                                                                                                                                                                                  
99.00 FGE50LMALV    M41           20201229085117238291900000012                                                                                                                                                                                                                                                                                                                                                                                                                                                                                                                                                         
