00.00 FGE50LMALV    EXTRACT_41    20210211074900243735705.00LMPT0000M41       FGX10     Recepcao N: 00011713-000                                                        358010003           00000000                                                                                                                                                                                                                                                                                                                                                                                                                    
41.00 00011713000288996                                  ADASTD1358202701        200           202102120000202102120700202102110748297                    10                 03                                       00000000   13276000000006 6131                                                                                                                                                                                                                                                                                                                                                                    
41.20 00011713000288996                        00004358              82232543         00000000205UNI                 0000000   000000000000000000000000000   000000000   0000000000000000010000000000000000000                    0000000000               00001                                                                                                                                                                                                                                                                                                                                                        
41.20 00011713000288996                        00003358              82232566         00000001716UNI                 0000000   000000000000000000000000000   000000000   0000000000000000010000000000000000000                    0000000000               00001                                                                                                                                                                                                                                                                                                                                                        
41.20 00011713000288996                        00002358              82509546         00000000108UNI                 0000000   000000108000000000000000000   000000000   0000000000000000010000321840020210210                    0000000000               00001                                                                                                                                                                                                                                                                                                                                                        
41.30 00011713000288996                        00002000000012000000001                    000000000                    2021021000000000560000358110750247   0000000000000000000000000000PVCR040006210358              82509546         0000000000003576000357600                                                                                                                                                                                                                                                                                                                                                        
41.30 00011713000288996                        00002000000012000000001                    000000000                    2021021000000000560000358110750254   0000000000000000000000000000PVCR040006220358              82509546         0000000000003576000357600                                                                                                                                                                                                                                                                                                                                                        
41.30 00011713000288996                        00002000000012000000001                    000000000                    2021021000000000560000358110750261   0000000000000000000000000000PVCR040006230358              82509546         0000000000003576000357600                                                                                                                                                                                                                                                                                                                                                        
41.30 00011713000288996                        00002000000012000000001                    000000000                    2021021000000000560000358110750278   0000000000000000000000000000PVCR040006240358              82509546         0000000000003576000357600                                                                                                                                                                                                                                                                                                                                                        
41.30 00011713000288996                        00002000000012000000001                    000000000                    2021021000000000560000358110750285   0000000000000000000000000000PVCR040006250358              82509546         0000000000003576000357600                                                                                                                                                                                                                                                                                                                                                        
41.30 00011713000288996                        00002000000012000000001                    000000000                    2021021000000000560000358110750292   0000000000000000000000000000PVCR040011620358              82509546         0000000000003576000357600                                                                                                                                                                                                                                                                                                                                                        
41.30 00011713000288996                        00002000000012000000001                    000000000                    2021021000000000560000358110750308   0000000000000000000000000000PVCR040011630358              82509546         0000000000003576000357600                                                                                                                                                                                                                                                                                                                                                        
41.30 00011713000288996                        00002000000012000000001                    000000000                    2021021000000000560000358110750315   0000000000000000000000000000PVCR040011640358              82509546         0000000000003576000357600                                                                                                                                                                                                                                                                                                                                                        
41.30 00011713000288996                        00002000000012000000001                    000000000                    2021021000000000560000358110750322   0000000000000000000000000000PVCR040012220358              82509546         0000000000003576000357600                                                                                                                                                                                                                                                                                                                                                        
41.20 00011713000288996                        00001358              82509559         00000000432UNI                 0000000   000000432000000000000000000   000000000   0000000000000000010000216000020210210                    0000000000               00001                                                                                                                                                                                                                                                                                                                                                        
41.30 00011713000288996                        00001000000016000000001                    000000000                    2021021000000000560000358110749975   0000000000000000000000000000ADAH060008100358              82509559         0000000000000874000080000                                                                                                                                                                                                                                                                                                                                                        
41.30 00011713000288996                        00001000000016000000001                    000000000                    2021021000000000560000358110749982   0000000000000000000000000000ADAH060008700358              82509559         0000000000000874000080000                                                                                                                                                                                                                                                                                                                                                        
41.30 00011713000288996                        00001000000016000000001                    000000000                    2021021000000000560000358110749999   0000000000000000000000000000ADAH060008500358              82509559         0000000000000874000080000                                                                                                                                                                                                                                                                                                                                                        
41.30 00011713000288996                        00001000000016000000001                    000000000                    2021021000000000560000358110750001   0000000000000000000000000000ADAH060008700358              82509559         0000000000000874000080000                                                                                                                                                                                                                                                                                                                                                        
41.30 00011713000288996                        00001000000016000000001                    000000000                    2021021000000000560000358110750018   0000000000000000000000000000ADAH060006300358              82509559         0000000000000874000080000                                                                                                                                                                                                                                                                                                                                                        
41.30 00011713000288996                        00001000000016000000001                    000000000                    2021021000000000560000358110750025   0000000000000000000000000000ADAH060006900358              82509559         0000000000000874000080000                                                                                                                                                                                                                                                                                                                                                        
41.30 00011713000288996                        00001000000016000000001                    000000000                    2021021000000000560000358110750032   0000000000000000000000000000ADAH060007100358              82509559         0000000000000874000080000                                                                                                                                                                                                                                                                                                                                                        
41.30 00011713000288996                        00001000000016000000001                    000000000                    2021021000000000560000358110750049   0000000000000000000000000000ADAH060008900358              82509559         0000000000000874000080000                                                                                                                                                                                                                                                                                                                                                        
41.30 00011713000288996                        00001000000016000000001                    000000000                    2021021000000000560000358110750056   0000000000000000000000000000ADAH060009100358              82509559         0000000000000874000080000                                                                                                                                                                                                                                                                                                                                                        
41.30 00011713000288996                        00001000000016000000001                    000000000                    2021021000000000560000358110750063   0000000000000000000000000000ADAH060009300358              82509559         0000000000000874000080000                                                                                                                                                                                                                                                                                                                                                        
41.30 00011713000288996                        00001000000016000000001                    000000000                    2021021000000000560000358110750070   0000000000000000000000000000ADAH060006500358              82509559         0000000000000874000080000                                                                                                                                                                                                                                                                                                                                                        
41.30 00011713000288996                        00001000000016000000001                    000000000                    2021021000000000560000358110750087   0000000000000000000000000000ADAH060009500358              82509559         0000000000000874000080000                                                                                                                                                                                                                                                                                                                                                        
41.30 00011713000288996                        00001000000016000000001                    000000000                    2021021000000000560000358110750094   0000000000000000000000000000ADAH060009300358              82509559         0000000000000874000080000                                                                                                                                                                                                                                                                                                                                                        
41.30 00011713000288996                        00001000000016000000001                    000000000                    2021021000000000560000358110750100   0000000000000000000000000000ADAH060006700358              82509559         0000000000000874000080000                                                                                                                                                                                                                                                                                                                                                        
41.30 00011713000288996                        00001000000016000000001                    000000000                    2021021000000000560000358110750117   0000000000000000000000000000ADAH060006300358              82509559         0000000000000874000080000                                                                                                                                                                                                                                                                                                                                                        
41.30 00011713000288996                        00001000000016000000001                    000000000                    2021021000000000560000358110750124   0000000000000000000000000000ADAH060006100358              82509559         0000000000000874000080000                                                                                                                                                                                                                                                                                                                                                        
41.30 00011713000288996                        00001000000016000000001                    000000000                    2021021000000000560000358110750131   0000000000000000000000000000ADAH060008300358              82509559         0000000000000874000080000                                                                                                                                                                                                                                                                                                                                                        
41.30 00011713000288996                        00001000000016000000001                    000000000                    2021021000000000560000358110750148   0000000000000000000000000000ADAH060006900358              82509559         0000000000000874000080000                                                                                                                                                                                                                                                                                                                                                        
41.30 00011713000288996                        00001000000016000000001                    000000000                    2021021000000000560000358110750155   0000000000000000000000000000ADAH060007600358              82509559         0000000000000874000080000                                                                                                                                                                                                                                                                                                                                                        
41.30 00011713000288996                        00001000000016000000001                    000000000                    2021021000000000560000358110750162   0000000000000000000000000000ADAH060007400358              82509559         0000000000000874000080000                                                                                                                                                                                                                                                                                                                                                        
41.30 00011713000288996                        00001000000016000000001                    000000000                    2021021000000000560000358110750179   0000000000000000000000000000ADAH060007200358              82509559         0000000000000874000080000                                                                                                                                                                                                                                                                                                                                                        
41.30 00011713000288996                        00001000000016000000001                    000000000                    2021021000000000560000358110750186   0000000000000000000000000000ADAH060008100358              82509559         0000000000000874000080000                                                                                                                                                                                                                                                                                                                                                        
41.30 00011713000288996                        00001000000016000000001                    000000000                    2021021000000000560000358110750193   0000000000000000000000000000ADAH060007900358              82509559         0000000000000874000080000                                                                                                                                                                                                                                                                                                                                                        
41.30 00011713000288996                        00001000000016000000001                    000000000                    2021021000000000560000358110750209   0000000000000000000000000000ADAH060007500358              82509559         0000000000000874000080000                                                                                                                                                                                                                                                                                                                                                        
41.30 00011713000288996                        00001000000016000000001                    000000000                    2021021000000000560000358110750216   0000000000000000000000000000ADAH060007700358              82509559         0000000000000874000080000                                                                                                                                                                                                                                                                                                                                                        
41.30 00011713000288996                        00001000000016000000001                    000000000                    2021021000000000560000358110750223   0000000000000000000000000000ADAH060007500358              82509559         0000000000000874000080000                                                                                                                                                                                                                                                                                                                                                        
41.30 00011713000288996                        00001000000016000000001                    000000000                    2021021000000000560000358110750230   0000000000000000000000000000ADAH060007300358              82509559         0000000000000874000080000                                                                                                                                                                                                                                                                                                                                                        
41.99 00011713000288996                        00040003600005400000002                                                                                                                                                                                                                                                                                                                                                                                                                                                                                                                                                  
99.00 FGE50LMALV    M41           20210211074900243735700000042                                                                                                                                                                                                                                                                                                                                                                                                                                                                                                                                                         
