00.00 FGE50LMALV    EXTRACT_80    20201229074130238280705.00LMPT0000M80       FGX10     Movimentos diversos actividade                                                  358010003           00000000

80.00 2020122907392820201229EM710-D  D  850112                        000000001358              81872194         00                 000000001ADAH160005120                    0000000005600003581106276930000000000000000206181        100012648000ULMALVALOPUVC

80.00 2020123016505320201230EM610-I  I  850122                        000000024358              18817334         00                 000000004ARRB180002500                    0000000005600003581105677770000000000000000205109        100012297000ULMALVVRABUVC

80.00 2021010619541020210106EM410-C  C  850237                        000000001358              82209759         00                 000000001ARRB040005600                    0000000005600003581105593690000000000000000              000000000000ULMALVCALOUVC

80.00 2021010422501620210104RG280+   M  850155                        000000040358              15320886         00                 000000001ARRB220005710                    0000000005600003581105417080000000000000000204401        100012076000ULMALVJBAAUVC

80.00 2021010422501620210104RG280-   M  850155                        000000040358              15320886         00                 000000001ARRB220005710                    0000000005600003581105417080000000000000000204401        100012076000ULMALVJBAAUVC

99.00 FGE50LMALV    M80           20201229074130238280700000001                                                                                                                                                                                                                                                                                                                                                                                                                                                                                                                                                         

