00.00 FGE50LMALV    EXTRACT_41    20210107081103239497005.00LMPT0000M41       FGX10     Recepcao N: 00011973-000                                                        358010003           00000000                                                                                                                                                                                                                                                                                                                                                                                                                    
41.00 00011973000281345                                  ADASTD1358202732        063           202101060900202101060900202101061351293                    10                 03                                       00000000   13276000000006 19GL39                                                                                                                                                                                                                                                                                                                                                                  
41.20 00011973000281345                        00001358              82055942         00000000198UNI                 0000000   000000198000000000000000000   000000000   0000000000000000010000114840020210106                    0000000000               00001                                                                                                                                                                                                                                                                                                                                                        
41.30 00011973000281345                        00001000000099000000001                    000000000                    2021010600000000560000358110638101   0000000000000000000000000000ADAH210009700358              82055942         0000000000005742000574200                                                                                                                                                                                                                                                                                                                                                        
41.30 00011973000281345                        00001000000099000000001                    000000000                    2021010600000000560000358110638125   0000000000000000000000000000ADAH010007900358              82055942         0000000000005742000574200                                                                                                                                                                                                                                                                                                                                                        
41.20 00011973000281345                        00002358              82055944         00000000198UNI                 0000000   000000198000000000000000000   000000000   0000000000000000010000110880020210106                    0000000000               00001                                                                                                                                                                                                                                                                                                                                                        
41.30 00011973000281345                        00002000000099000000001                    000000000                    2021010600000000560000358110638132   0000000000000000000000000000ADAH010008300358              82055944         0000000000005544000554400                                                                                                                                                                                                                                                                                                                                                        
41.30 00011973000281345                        00002000000099000000001                    000000000                    2021010600000000560000358110638156   0000000000000000000000000000ADAH010010100358              82055944         0000000000005544000554400                                                                                                                                                                                                                                                                                                                                                        
41.20 00011973000281345                        00003358              82200401         00000000072UNI                 0000000   000000072000000000000000000   000000000   0000000000000000010000056160020210106                    0000000000               00001                                                                                                                                                                                                                                                                                                                                                        
41.30 00011973000281345                        00003000000072000000001                    000000000                    2021010600000000560000358110638118   0000000000000000000000000000ADAH210007800358              82200401         0000000000005616000561600                                                                                                                                                                                                                                                                                                                                                        
41.99 00011973000281345                        00030000500004680000003                                                                                                                                                                                                                                                                                                                                                                                                                                                                                                                                                  
99.00 FGE50LMALV    M41           20210107081103239497000000010                                                                                                                                                                                                                                                                                                                                                                                                                                                                                                                                                         
