00.00 FGE50LMALV    EXTRACT_41    20210105151711239164805.00LMPT0000M41       FGX10     Recepcao N: 00011382-000                                                        358010003           00000000                                                                                                                                                                                                                                                                                                                                                                                                                    
41.00 00011382000269670                                  ARRSTD1358204922        1             202012301400202012301400202101051516192                    10                 03                                       00000000   13276000000006 MSKU3473851                                                                                                                                                                                                                                                                                                                                                             
41.20 00011382000269670                        00011358              79783480         00000000504UNI                 0000000   000000504000000000000000000   000000000   0000000000000000010000012801620210104                    0000000000               00024                                                                                                                                                                                                                                                                                                                                                        
41.30 00011382000269670                        00011000000432000400024                    000000000                    2021010400000000560000358110630624   0000000000000000000000000000ARRB120008120358              79783480         0000000000001350000109728                                                                                                                                                                                                                                                                                                                                                        
41.30 00011382000269670                        00011000000072000400024                    000000000                    2021010400000000560000358110630631   0000000000000000000000000000ARRB120005200358              79783480         0000000000000225000018288                                                                                                                                                                                                                                                                                                                                                        
41.20 00011382000269670                        00006358              81871798         00000001008UNI                 0000000   000001008000000000000000000   000000000   0000000000000000010000014313620210104                    0000000000               00024                                                                                                                                                                                                                                                                                                                                                        
41.30 00011382000269670                        00006000000648000200024                    000000000                    2021010400000000560000358110630518   0000000000000000000000000000ARRB180007940358              81871798         0000000000001296000092016                                                                                                                                                                                                                                                                                                                                                        
41.30 00011382000269670                        00006000000360000200024                    000000000                    2021010400000000560000358110630525   0000000000000000000000000000ARRB170005800358              81871798         0000000000000720000051120                                                                                                                                                                                                                                                                                                                                                        
41.20 00011382000269670                        00010358              81871800         00000000792UNI                 0000000   000000792000000000000000000   000000000   0000000000000000010000045540020210104                    0000000000               00024                                                                                                                                                                                                                                                                                                                                                        
41.30 00011382000269670                        00010000000288000200024                    000000000                    2021010400000000560000358110630471   0000000000000000000000000000ARRB100001500358              81871800         0000000000001740000165600                                                                                                                                                                                                                                                                                                                                                        
41.30 00011382000269670                        00010000000288000200024                    000000000                    2021010400000000560000358110630488   0000000000000000000000000000ARRB100004440358              81871800         0000000000001740000165600                                                                                                                                                                                                                                                                                                                                                        
41.30 00011382000269670                        00010000000216000200024                    000000000                    2021010400000000560000358110630495   0000000000000000000000000000ARRB100004840358              81871800         0000000000001305000124200                                                                                                                                                                                                                                                                                                                                                        
41.20 00011382000269670                        00001358              81871801         00000000144UNI                 0000000   000000144000000000000000000   000000000   0000000000000000010000001440020210104                    0000000000               00024                                                                                                                                                                                                                                                                                                                                                        
41.30 00011382000269670                        00001000000144000400024                    000000000                    2021010400000000560000358110630532   0000000000000000000000000000ARRB170003500358              81871801         0000000000000162000014400                                                                                                                                                                                                                                                                                                                                                        
41.20 00011382000269670                        00013358              81871807         00000000120UNI                 0000000   000000120000000000000000000   000000000   0000000000000000010000001248020210104                    0000000000               00024                                                                                                                                                                                                                                                                                                                                                        
41.30 00011382000269670                        00013000000120000200024                    000000000                    2021010400000000560000358110631386   0000000000000000000000000000ARRB160002600358              81871807         0000000000000125000012480                                                                                                                                                                                                                                                                                                                                                        
41.20 00011382000269670                        00002358              81871808         00000000288UNI                 0000000   000000288000000000000000000   000000000   0000000000000000010000010368020210104                    0000000000               00024                                                                                                                                                                                                                                                                                                                                                        
41.30 00011382000269670                        00002000000288000000024                    000000000                    2021010400000000560000358110631461   0000000000000000000000000000ARRB100006510358              81871808         0000000000001104000103680                                                                                                                                                                                                                                                                                                                                                        
41.20 00011382000269670                        00008358              81871809         00000000312UNI                 0000000   000000312000000000000000000   000000000   0000000000000000010000018720020210104                    0000000000               00024                                                                                                                                                                                                                                                                                                                                                        
41.30 00011382000269670                        00008000000312000000024                    000000000                    2021010400000000560000358110630501   0000000000000000000000000000ARRB180005340358              81871809         0000000000001976000187200                                                                                                                                                                                                                                                                                                                                                        
41.20 00011382000269670                        00016358              81871810         00000000192UNI                 0000000   000000192000000000000000000   000000000   0000000000000000010000001536020210104                    0000000000               00024                                                                                                                                                                                                                                                                                                                                                        
41.30 00011382000269670                        00016000000192000000024                    000000000                    2021010400000000560000358110631058   0000000000000000000000000000ARRB120000200358              81871810         0000000000000168000015360                                                                                                                                                                                                                                                                                                                                                        
41.20 00011382000269670                        00009358              81871814         00000000216UNI                 0000000   000000216000000000000000000   000000000   0000000000000000010000000864020210104                    0000000000               00024                                                                                                                                                                                                                                                                                                                                                        
41.30 00011382000269670                        00009000000216000400024                    000000000                    2021010400000000560000358110631393   0000000000000000000000000000ARRB170005600358              81871814         0000000000000585000008640                                                                                                                                                                                                                                                                                                                                                        
41.20 00011382000269670                        00005358              81874042         00000000168UNI                 0000000   000000168000000000000000000   000000000   0000000000000000010000018144020210104                    0000000000               00012                                                                                                                                                                                                                                                                                                                                                        
41.30 00011382000269670                        00005000000108000400012                    000000000                    2021010400000000560000358110631416   0000000000000000000000000000ARRB110000530358              81874042         0000000000001359000116640                                                                                                                                                                                                                                                                                                                                                        
41.30 00011382000269670                        00005000000060000400012                    000000000                    2021010400000000560000358110631423   0000000000000000000000000000ARRB110002920358              81874042         0000000000000755000064800                                                                                                                                                                                                                                                                                                                                                        
41.20 00011382000269670                        00014358              82206361         00000000140UNI                 0000000   000000140000000000000000000   000000000   0000000000000000010000008750020210104                    0000000000               00020                                                                                                                                                                                                                                                                                                                                                        
41.30 00011382000269670                        00014000000140001000020                    000000000                    2021010400000000560000358110630716   0000000000000000000000000000ARRB160002720358              82206361         0000000000000987000087500                                                                                                                                                                                                                                                                                                                                                        
41.20 00011382000269670                        00007358              82260884         00000000504UNI                 0000000   000000504000000000000000000   000000000   0000000000000000010000020563220210104                    0000000000               00024                                                                                                                                                                                                                                                                                                                                                        
41.30 00011382000269670                        00007000000360000600024                    000000000                    2021010400000000560000358110631430   0000000000000000000000000000ARRB160004300358              82260884         0000000000001675500146880                                                                                                                                                                                                                                                                                                                                                        
41.30 00011382000269670                        00007000000144000600024                    000000000                    2021010400000000560000358110631447   0000000000000000000000000000ARRB160007920358              82260884         0000000000000670200058752                                                                                                                                                                                                                                                                                                                                                        
41.20 00011382000269670                        00015358              82260886         00000000312UNI                 0000000   000000312000000000000000000   000000000   0000000000000000010000009048020210104                    0000000000               00024                                                                                                                                                                                                                                                                                                                                                        
41.30 00011382000269670                        00015000000312000400024                    000000000                    2021010400000000560000358110631256   0000000000000000000000000000ARRB100008010358              82260886         0000000000000904800090480                                                                                                                                                                                                                                                                                                                                                        
41.20 00011382000269670                        00017358              82260892         00000000120UNI                 0000000   000000120000000000000000000   000000000   0000000000000000010000010596020210104                    0000000000               00012                                                                                                                                                                                                                                                                                                                                                        
41.30 00011382000269670                        00017000000120000600012                    000000000                    2021010400000000560000358110631164   0000000000000000000000000000ARRB160003610358              82260892         0000000000001120000105960                                                                                                                                                                                                                                                                                                                                                        
41.20 00011382000269670                        00004358              82260894         00000000096UNI                 0000000   000000096000000000000000000   000000000   0000000000000000010000003964820210104                    0000000000               00024                                                                                                                                                                                                                                                                                                                                                        
41.30 00011382000269670                        00004000000096000400024                    000000000                    2021010400000000560000358110630723   0000000000000000000000000000ARRB160003100358              82260894         0000000000000436000039648                                                                                                                                                                                                                                                                                                                                                        
41.20 00011382000269670                        00012358              82260896         00000000396UNI                 0000000   000000396000000000000000000   000000000   0000000000000000010000035640020210104                    0000000000               00012                                                                                                                                                                                                                                                                                                                                                        
41.30 00011382000269670                        00012000000216000600012                    000000000                    2021010400000000560000358110630730   0000000000000000000000000000ARRB160003300358              82260896         0000000000002052000194400                                                                                                                                                                                                                                                                                                                                                        
41.30 00011382000269670                        00012000000180000600012                    000000000                    2021010400000000560000358110631171   0000000000000000000000000000ARRB160004150358              82260896         0000000000001710000162000                                                                                                                                                                                                                                                                                                                                                        
41.20 00011382000269670                        00003358              82260932         00000000312UNI                 0000000   000000312000000000000000000   000000000   0000000000000000010000012729620210104                    0000000000               00024                                                                                                                                                                                                                                                                                                                                                        
41.30 00011382000269670                        00003000000312000400024                    000000000                    2021010400000000560000358110631454   0000000000000000000000000000ARRB160005200358              82260932         0000000000001404000127296                                                                                                                                                                                                                                                                                                                                                        
41.20 00011382000269670                        00018358              82260934         00000000348UNI                 0000000   000000348000000000000000000   000000000   0000000000000000010000019731620210104                    0000000000               00012                                                                                                                                                                                                                                                                                                                                                        
41.30 00011382000269670                        00018000000288000400012                    000000000                    2021010400000000560000358110630693   0000000000000000000000000000ARRB160007850358              82260934         0000000000001752000163296                                                                                                                                                                                                                                                                                                                                                        
41.30 00011382000269670                        00018000000060000400012                    000000000                    2021010400000000560000358110630709   0000000000000000000000000000ARRB160004400358              82260934         0000000000000365000034020                                                                                                                                                                                                                                                                                                                                                        
41.99 00011382000269670                        00180002600002930000018                                                                                                                                                                                                                                                                                                                                                                                                                                                                                                                                                  
99.00 FGE50LMALV    M41           20210105151711239164800000046                                                                                                                                                                                                                                                                                                                                                                                                                                                                                                                                                         
