00.00 FGE50LMALV    EXTRACT_80    20210104225218239023505.00LMPT0000M80       FGX10     Movimentos diversos actividade                                                  358010003           00000000                                                                                                                                                                                                                                                                                                                                                                                                                    
80.00 2021010422501620210104RG280-   M  850155                        000000040358              15320886         00                 000000001ARRB220005710                    0000000005600003581105417080000000000000000204401        100012076000ULMALVJBAAUVC                                                                                                                                                                                                                                                                                                                                                        
99.00 FGE50LMALV    M80           20210104225218239023500000001                                                                                                                                                                                                                                                                                                                                                                                                                                                                                                                                                         
