00.00 FGE50LM0LV    EXTRACT_80    20210217091701210028105.00LMPT0000M80       FGX10     Movimentos diversos actividade                                                  358010003           00000000                                                                                                                                                                                                                                                                                                                                                                                                                    
80.00 2021021709143920210217EM680+I     835617                        000000015358              16816856         00                 000000001ADAH140003320                    0000000000480578           0000000000000000              000000000000ULM999HNOVUVC                                                                                                                                                                                                                                                                                                                                                        
80.00 2021021709144720210217EM680+I     835618                        000000010358              16816856         00                 000000001ADAH120006440                    0000000000255318           0000000000000000              000000000000ULM999HNOVUVC                                                                                                                                                                                                                                                                                                                                                        
80.00 2021021709150620210217EM680+I     835619                        000000020358              81989209         00                 000000001ARRB010000320                    0000000005600000358100031240000000000000000205822        120000170000ULM999HNOVUVC                                                                                                                                                                                                                                                                                                                                                        
80.00 2021021709155020210217EM680+M     835620                        000000004358              00014411         00                 000000001ARRA060001310                    0000000005600000358100037040000000000000000              000000000000ULM999HNOVUVC                                                                                                                                                                                                                                                                                                                                                        
80.00 2021021709160120210217EM680+M     835621                        000000028358              00436245         00                 000000001PVAO042004630                    0000000000485217           0000000000000000              000000000000ULM999HNOVUVC                                                                                                                                                                                                                                                                                                                                                        
99.00 FGE50LM0LV    M80           20210217091701210028100000005                                                                                                                                                                                                                                                                                                                                                                                                                                                                                                                                                         
