00.00 FGE50LMALV    EXTRACT_80    20201230165254238579805.00LMPT0000M80       FGX10     Movimentos diversos actividade                                                  358010003           00000000                                                                                                                                                                                                                                                                                                                                                                                                                    
80.00 2020123016505320201230EM610-I  I  850122                        000000024358              18817334         00                 000000004ARRB180002500                    0000000005600003581105677770000000000000000205109        100012297000ULMALVVRABUVC                                                                                                                                                                                                                                                                                                                                                        
99.00 FGE50LMALV    M80           20201230165254238579800000001                                                                                                                                                                                                                                                                                                                                                                                                                                                                                                                                                         
