00.00 FGE50LMALV    EXTRACT_80    20210106195611239448605.00LMPT0000M80       FGX10     Movimentos diversos actividade                                                  358010003           00000000                                                                                                                                                                                                                                                                                                                                                                                                                    
80.00 2021010619541020210106EM410-C  C  850237                        000000001358              82209759         00                 000000001ARRB040005600                    0000000005600003581105593690000000000000000              000000000000ULMALVCALOUVC                                                                                                                                                                                                                                                                                                                                                        
99.00 FGE50LMALV    M80           20210106195611239448600000001                                                                                                                                                                                                                                                                                                                                                                                                                                                                                                                                                         
