00.00 FGE50LMALV    EXTRACT_80    20201229074130238280705.00LMPT0000M80       FGX10     Movimentos diversos actividade                                                  358010003           00000000                                                                                                                                                                                                                                                                                                                                                                                                                    
80.00 2020122907392820201229EM710-D  D  850112                        000000001358              81872194         00                 000000001ADAH160005120                    0000000005600003581106276930000000000000000206181        100012648000ULMALVALOPUVC                                                                                                                                                                                                                                                                                                                                                        
99.00 FGE50LMALV    M80           20201229074130238280700000001                                                                                                                                                                                                                                                                                                                                                                                                                                                                                                                                                         
