00.00 FGE50LMALV    EXTRACT_41    20210215094833244098405.00LMPT0000M41       FGX10     Recepcao N: 00012431-000                                                        358010003           00000000                                                                                                                                                                                                                                                                                                                                                                                                                    
41.00 00012431000296202                                  ARRSTD1358204943        1             202102040900202102041255202102150946192                    10                 03                                       00000000   13276000000006 SUDU8923940                                                                                                                                                                                                                                                                                                                                                             
41.20 00012431000296202                        00075358              00271121         00000002016UNI                 0000000   000002016000000000000000000   000000000   0000000000000000010000007862420210208                    0000000000               00084                                                                                                                                                                                                                                                                                                                                                        
41.30 00012431000296202                        00075000002016001400084                    000000000                    2021020800000000560000358110735763   0000000000000000000000000000ARRB150001840358              00271121         0000000000001136160078624                                                                                                                                                                                                                                                                                                                                                        
41.20 00012431000296202                        00009358              00949254         00000001296UNI                 0000000   000001296000000000000000000   000000000   0000000000000000010000007776020210209                    0000000000               00048                                                                                                                                                                                                                                                                                                                                                        
41.30 00012431000296202                        00009000001296000800048                    000000000                    2021020900000000560000358110738269   0000000000000000000000000000ARRB190001250358              00949254         0000000000000783000077760                                                                                                                                                                                                                                                                                                                                                        
41.20 00012431000296202                        00048358              00949264         00000001416UNI                 0000000   000001416000000000000000000   000000000   0000000000000000010000048427220210209                    0000000000               00024                                                                                                                                                                                                                                                                                                                                                        
41.30 00012431000296202                        00048000000192000400024                    000000000                    2021020900000000560000358110738948   0000000000000000000000000000ARRB200005850358              00949264         0000000000000656000065664                                                                                                                                                                                                                                                                                                                                                        
41.30 00012431000296202                        00048000000192000400024                    000000000                    2021020900000000560000358110738955   0000000000000000000000000000ARRB090006250358              00949264         0000000000000656000065664                                                                                                                                                                                                                                                                                                                                                        
41.30 00012431000296202                        00048000000192000400024                    000000000                    2021020900000000560000358110738962   0000000000000000000000000000ARRB090001510358              00949264         0000000000000656000065664                                                                                                                                                                                                                                                                                                                                                        
41.30 00012431000296202                        00048000000192000400024                    000000000                    2021020900000000560000358110738993   0000000000000000000000000000ARRB200006450358              00949264         0000000000000656000065664                                                                                                                                                                                                                                                                                                                                                        
41.30 00012431000296202                        00048000000192000400024                    000000000                    2021020900000000560000358110739280   0000000000000000000000000000ARRB100000150358              00949264         0000000000000656000065664                                                                                                                                                                                                                                                                                                                                                        
41.30 00012431000296202                        00048000000192000400024                    000000000                    2021020900000000560000358110739327   0000000000000000000000000000ARRB110000330358              00949264         0000000000000656000065664                                                                                                                                                                                                                                                                                                                                                        
41.30 00012431000296202                        00048000000192000400024                    000000000                    2021020900000000560000358110739358   0000000000000000000000000000ARRB200006050358              00949264         0000000000000656000065664                                                                                                                                                                                                                                                                                                                                                        
41.30 00012431000296202                        00048000000072000400024                    000000000                    2021020900000000560000358110739402   0000000000000000000000000000ARRB090003100358              00949264         0000000000000246000024624                                                                                                                                                                                                                                                                                                                                                        
41.20 00012431000296202                        00044358              00949266         00000000864UNI                 0000000   000000864000000000000000000   000000000   0000000000000000010000005788820210209                    0000000000               00048                                                                                                                                                                                                                                                                                                                                                        
41.30 00012431000296202                        00044000000864000800048                    000000000                    2021020900000000560000358110739211   0000000000000000000000000000ARRB150003600358              00949266         0000000000000576000057888                                                                                                                                                                                                                                                                                                                                                        
41.20 00012431000296202                        00021358              00949268         00000002640UNI                 0000000   000002640000000000000000000   000000000   0000000000000000010000010032020210209                    0000000000               00048                                                                                                                                                                                                                                                                                                                                                        
41.30 00012431000296202                        00021000001152000800048                    000000000                    2021020900000000560000358110738450   0000000000000000000000000000ARRB190001750358              00949268         0000000000001104000043776                                                                                                                                                                                                                                                                                                                                                        
41.30 00012431000296202                        00021000001152000800048                    000000000                    2021020900000000560000358110738467   0000000000000000000000000000ARRB190001150358              00949268         0000000000001104000043776                                                                                                                                                                                                                                                                                                                                                        
41.30 00012431000296202                        00021000000336000800048                    000000000                    2021020900000000560000358110738986   0000000000000000000000000000ARRB140000510358              00949268         0000000000000322000012768                                                                                                                                                                                                                                                                                                                                                        
41.20 00012431000296202                        00017358              00949270         00000001392UNI                 0000000   000001392000000000000000000   000000000   0000000000000000010000007377620210209                    0000000000               00048                                                                                                                                                                                                                                                                                                                                                        
41.30 00012431000296202                        00017000000864000800048                    000000000                    2021020900000000560000358110739266   0000000000000000000000000000ARRB150002410358              00949270         0000000000000594000045792                                                                                                                                                                                                                                                                                                                                                        
41.30 00012431000296202                        00017000000528000800048                    000000000                    2021020900000000560000358110739273   0000000000000000000000000000ARRB150001110358              00949270         0000000000000363000027984                                                                                                                                                                                                                                                                                                                                                        
41.20 00012431000296202                        00026358              00949274         00000000912UNI                 0000000   000000912000000000000000000   000000000   0000000000000000010000004742420210209                    0000000000               00048                                                                                                                                                                                                                                                                                                                                                        
41.30 00012431000296202                        00026000000912000800048                    000000000                    2021020900000000560000358110738610   0000000000000000000000000000ARRB090006640358              00949274         0000000000000896800047424                                                                                                                                                                                                                                                                                                                                                        
41.20 00012431000296202                        00016358              00950150         00000000768UNI                 0000000   000000768000000000000000000   000000000   0000000000000000010000005376020210209                    0000000000               00048                                                                                                                                                                                                                                                                                                                                                        
41.30 00012431000296202                        00016000000768000600048                    000000000                    2021020900000000560000358110740309   0000000000000000000000000000ARRB150001310358              00950150         0000000000000545600053760                                                                                                                                                                                                                                                                                                                                                        
41.20 00012431000296202                        00040358              00950152         00000001056UNI                 0000000   000001056000000000000000000   000000000   0000000000000000010000007180820210209                    0000000000               00048                                                                                                                                                                                                                                                                                                                                                        
41.30 00012431000296202                        00040000001056000600048                    000000000                    2021020900000000560000358110738351   0000000000000000000000000000ARRB140003500358              00950152         0000000000000677600071808                                                                                                                                                                                                                                                                                                                                                        
41.20 00012431000296202                        00006358              00950200         00000000096UNI                 0000000   000000096000000000000000000   000000000   0000000000000000010000000921620210209                    0000000000               00048                                                                                                                                                                                                                                                                                                                                                        
41.30 00012431000296202                        00006000000096000800048                    000000000                    2021020900000000560000358110739259   0000000000000000000000000000ARRB170007100358              00950200         0000000000000092000009216                                                                                                                                                                                                                                                                                                                                                        
41.20 00012431000296202                        00060358              00950202         00000000624UNI                 0000000   000000624000000000000000000   000000000   0000000000000000010000007800020210209                    0000000000               00048                                                                                                                                                                                                                                                                                                                                                        
41.30 00012431000296202                        00060000000624000800048                    000000000                    2021020900000000560000358110739198   0000000000000000000000000000ARRB160001810358              00950202         0000000000000923000078000                                                                                                                                                                                                                                                                                                                                                        
41.20 00012431000296202                        00057358              00951166         00000000880UNI                 0000000   000000880000000000000000000   000000000   0000000000000000010000001760020210208                    0000000000               00080                                                                                                                                                                                                                                                                                                                                                        
41.30 00012431000296202                        00057000000880001000080                    000000000                    2021020800000000560000358110732755   0000000000000000000000000000ARRB140000200358              00951166         0000000000000220000017600                                                                                                                                                                                                                                                                                                                                                        
41.20 00012431000296202                        00024358              00951168         00000000800UNI                 0000000   000000800000000000000000000   000000000   0000000000000000010000003040020210208                    0000000000               00080                                                                                                                                                                                                                                                                                                                                                        
41.30 00012431000296202                        00024000000800001000080                    000000000                    2021020800000000560000358110732731   0000000000000000000000000000ARRB120003000358              00951168         0000000000000300000030400                                                                                                                                                                                                                                                                                                                                                        
41.20 00012431000296202                        00018358              00951174         00000001040UNI                 0000000   000001040000000000000000000   000000000   0000000000000000010000001352020210208                    0000000000               00080                                                                                                                                                                                                                                                                                                                                                        
41.30 00012431000296202                        00018000001040001000080                    000000000                    2021020800000000560000358110732717   0000000000000000000000000000ARRB170002300358              00951174         0000000000000227500013520                                                                                                                                                                                                                                                                                                                                                        
41.20 00012431000296202                        00025358              00951176         00000000576UNI                 0000000   000000576000000000000000000   000000000   0000000000000000010000002649620210208                    0000000000               00048                                                                                                                                                                                                                                                                                                                                                        
41.30 00012431000296202                        00025000000576000600048                    000000000                    2021020800000000560000358110735466   0000000000000000000000000000ARRB130000130358              00951176         0000000000000364080026496                                                                                                                                                                                                                                                                                                                                                        
41.20 00012431000296202                        00031358              00951178         00000000720UNI                 0000000   000000720000000000000000000   000000000   0000000000000000010000002664020210208                    0000000000               00080                                                                                                                                                                                                                                                                                                                                                        
41.30 00012431000296202                        00031000000720001000080                    000000000                    2021020800000000560000358110735305   0000000000000000000000000000ARRB170000100358              00951178         0000000000000267300026640                                                                                                                                                                                                                                                                                                                                                        
41.20 00012431000296202                        00045358              00951190         00000002000UNI                 0000000   000002000000000000000000000   000000000   0000000000000000010000008000020210209                    0000000000               00080                                                                                                                                                                                                                                                                                                                                                        
41.30 00012431000296202                        00045000002000001000080                    000000000                    2021020900000000560000358110738436   0000000000000000000000000000ARRB200005650358              00951190         0000000000000802500080000                                                                                                                                                                                                                                                                                                                                                        
41.20 00012431000296202                        00076358              00951198         00000001280UNI                 0000000   000001280000000000000000000   000000000   0000000000000000010000005504020210208                    0000000000               00080                                                                                                                                                                                                                                                                                                                                                        
41.30 00012431000296202                        00076000001280001000080                    000000000                    2021020800000000560000358110735473   0000000000000000000000000000ARRB140006510358              00951198         0000000000000316800055040                                                                                                                                                                                                                                                                                                                                                        
41.20 00012431000296202                        00043358              00951200         00000001040UNI                 0000000   000001040000000000000000000   000000000   0000000000000000010000004160020210208                    0000000000               00080                                                                                                                                                                                                                                                                                                                                                        
41.30 00012431000296202                        00043000001040001000080                    000000000                    2021020800000000560000358110733486   0000000000000000000000000000ARRB140003200358              00951200         0000000000000413400041600                                                                                                                                                                                                                                                                                                                                                        
41.20 00012431000296202                        00066358              17711001         00000000756UNI                 0000000   000000756000000000000000000   000000000   0000000000000000010000002646020210208                    0000000000               00084                                                                                                                                                                                                                                                                                                                                                        
41.30 00012431000296202                        00066000000756001400084                    000000000                    2021020800000000560000358110733073   0000000000000000000000000000ARRB150005000358              17711001         0000000000000261900026460                                                                                                                                                                                                                                                                                                                                                        
41.20 00012431000296202                        00065358              17711134         00000001932UNI                 0000000   000001932000000000000000000   000000000   0000000000000000010000002318420210209                    0000000000               00084                                                                                                                                                                                                                                                                                                                                                        
41.30 00012431000296202                        00065000001932001400084                    000000000                    2021020900000000560000358110738504   0000000000000000000000000000ARRB160008230358              17711134         0000000000000782000023184                                                                                                                                                                                                                                                                                                                                                        
41.20 00012431000296202                        00061358              17711183         00000002520UNI                 0000000   000002520000000000000000000   000000000   0000000000000000010000003528020210208                    0000000000               00084                                                                                                                                                                                                                                                                                                                                                        
41.30 00012431000296202                        00061000002520001400084                    000000000                    2021020800000000560000358110735770   0000000000000000000000000000ARRB160003150358              17711183         0000000000001020000035280                                                                                                                                                                                                                                                                                                                                                        
41.20 00012431000296202                        00071358              19275886         00000001428UNI                 0000000   000001428000000000000000000   000000000   0000000000000000010000004569620210208                    0000000000               00084                                                                                                                                                                                                                                                                                                                                                        
41.30 00012431000296202                        00071000001176001400084                    000000000                    2021020800000000560000358110733325   0000000000000000000000000000ARRB090006000358              19275886         0000000000000378000037632                                                                                                                                                                                                                                                                                                                                                        
41.30 00012431000296202                        00071000000252001400084                    000000000                    2021020800000000560000358110733561   0000000000000000000000000000ARRB090006000358              19275886         0000000000000081000008064                                                                                                                                                                                                                                                                                                                                                        
41.20 00012431000296202                        00036358              19275963         00000000336UNI                 0000000   000000336000000000000000000   000000000   0000000000000000010000000470420210208                    0000000000               00084                                                                                                                                                                                                                                                                                                                                                        
41.30 00012431000296202                        00036000000336001400084                    000000000                    2021020800000000560000358110734735   0000000000000000000000000000ARRB090006600358              19275963         0000000000000136000004704                                                                                                                                                                                                                                                                                                                                                        
41.20 00012431000296202                        00020358              19275970         00000000168UNI                 0000000   000000168000000000000000000   000000000   0000000000000000010000000537620210208                    0000000000               00084                                                                                                                                                                                                                                                                                                                                                        
41.30 00012431000296202                        00020000000168001400084                    000000000                    2021020800000000560000358110735732   0000000000000000000000000000ARRB140005500358              19275970         0000000000000054000005376                                                                                                                                                                                                                                                                                                                                                        
41.20 00012431000296202                        00027358              19926081         00000000320UNI                 0000000   000000320000000000000000000   000000000   0000000000000000010000002112020210208                    0000000000               00080                                                                                                                                                                                                                                                                                                                                                        
41.30 00012431000296202                        00027000000320001000080                    000000000                    2021020800000000560000358110735282   0000000000000000000000000000ARRB150006700358              19926081         0000000000000254400021120                                                                                                                                                                                                                                                                                                                                                        
41.20 00012431000296202                        00007358              19926284         00000000240UNI                 0000000   000000240000000000000000000   000000000   0000000000000000010000004680020210209                    0000000000               00048                                                                                                                                                                                                                                                                                                                                                        
41.30 00012431000296202                        00007000000240000800048                    000000000                    2021020900000000560000358110739297   0000000000000000000000000000ARRB090007200358              19926284         0000000000000555000046800                                                                                                                                                                                                                                                                                                                                                        
41.20 00012431000296202                        00023358              19926326         00000001760UNI                 0000000   000001760000000000000000000   000000000   0000000000000000010000015488020210209                    0000000000               00080                                                                                                                                                                                                                                                                                                                                                        
41.30 00012431000296202                        00023000001760000800080                    000000000                    2021020900000000560000358110740088   0000000000000000000000000000ARRB170003340358              19926326         0000000000001650000154880                                                                                                                                                                                                                                                                                                                                                        
41.20 00012431000296202                        00038358              19926361         00000000192UNI                 0000000   000000192000000000000000000   000000000   0000000000000000010000002188820210209                    0000000000               00064                                                                                                                                                                                                                                                                                                                                                        
41.30 00012431000296202                        00038000000192000800064                    000000000                    2021020900000000560000358110739303   0000000000000000000000000000ARRB130000100358              19926361         0000000000000246000021888                                                                                                                                                                                                                                                                                                                                                        
41.20 00012431000296202                        00001358              19969684         00000000240UNI                 0000000   000000240000000000000000000   000000000   0000000000000000010000003600020210209                    0000000000               00120                                                                                                                                                                                                                                                                                                                                                        
41.30 00012431000296202                        00001000000240001000120                    000000000                    2021020900000000560000358110739204   0000000000000000000000000000ARRB090002600358              19969684         0000000000000070000036000                                                                                                                                                                                                                                                                                                                                                        
41.20 00012431000296202                        00054358              19969733         00000000840UNI                 0000000   000000840000000000000000000   000000000   0000000000000000010000006888020210209                    0000000000               00120                                                                                                                                                                                                                                                                                                                                                        
41.30 00012431000296202                        00054000000840001000120                    000000000                    2021020900000000560000358110738931   0000000000000000000000000000ARRB120007100358              19969733         0000000000000294000068880                                                                                                                                                                                                                                                                                                                                                        
41.20 00012431000296202                        00078358              19969985         00000000588UNI                 0000000   000000588000000000000000000   000000000   0000000000000000010000000999620210208                    0000000000               00084                                                                                                                                                                                                                                                                                                                                                        
41.30 00012431000296202                        00078000000588001400084                    000000000                    2021020800000000560000358110732106   0000000000000000000000000000ARRB110008400358              19969985         0000000000000245000009996                                                                                                                                                                                                                                                                                                                                                        
41.20 00012431000296202                        00019358              19970111         00000000924UNI                 0000000   000000924000000000000000000   000000000   0000000000000000010000003326420210208                    0000000000               00084                                                                                                                                                                                                                                                                                                                                                        
41.30 00012431000296202                        00019000000924001400084                    000000000                    2021020800000000560000358110733103   0000000000000000000000000000ARRB110000600358              19970111         0000000000000332200033264                                                                                                                                                                                                                                                                                                                                                        
41.20 00012431000296202                        00035358              19970125         00000000672UNI                 0000000   000000672000000000000000000   000000000   0000000000000000010000002352020210208                    0000000000               00084                                                                                                                                                                                                                                                                                                                                                        
41.30 00012431000296202                        00035000000672001400084                    000000000                    2021020800000000560000358110732038   0000000000000000000000000000ARRB150008300358              19970125         0000000000000232800023520                                                                                                                                                                                                                                                                                                                                                        
41.20 00012431000296202                        00003358              19970153         00000000756UNI                 0000000   000000756000000000000000000   000000000   0000000000000000010000002646020210208                    0000000000               00084                                                                                                                                                                                                                                                                                                                                                        
41.30 00012431000296202                        00003000000756001400084                    000000000                    2021020800000000560000358110733059   0000000000000000000000000000ARRB150005200358              19970153         0000000000000261000026460                                                                                                                                                                                                                                                                                                                                                        
41.20 00012431000296202                        00005358              45685913         00000001680UNI                 0000000   000001680000000000000000000   000000000   0000000000000000010000004200020210209                    0000000000               00084                                                                                                                                                                                                                                                                                                                                                        
41.30 00012431000296202                        00005000001680001400084                    000000000                    2021020900000000560000358110740071   0000000000000000000000000000ARRB140008430358              45685913         0000000000000544000042000                                                                                                                                                                                                                                                                                                                                                        
41.20 00012431000296202                        00030358              82124752         00000000160UNI                 0000000   000000160000000000000000000   000000000   0000000000000000010000007008020210209                    0000000000               00032                                                                                                                                                                                                                                                                                                                                                        
41.30 00012431000296202                        00030000000160000400032                    000000000                    2021020900000000560000358110738399   0000000000000000000000000000ARRB170000600358              82124752         0000000000000700000070080                                                                                                                                                                                                                                                                                                                                                        
41.20 00012431000296202                        00014358              82124753         00000000160UNI                 0000000   000000160000000000000000000   000000000   0000000000000000010000006880020210208                    0000000000               00032                                                                                                                                                                                                                                                                                                                                                        
41.30 00012431000296202                        00014000000160000400032                    000000000                    2021020800000000560000358110735787   0000000000000000000000000000ARRB170000800358              82124753         0000000000000320000068800                                                                                                                                                                                                                                                                                                                                                        
41.20 00012431000296202                        00069358              82431399         00000001872UNI                 0000000   000001872000000000000000000   000000000   0000000000000000010000011232020210209                    0000000000               00048                                                                                                                                                                                                                                                                                                                                                        
41.30 00012431000296202                        00069000001008000800048                    000000000                    2021020900000000560000358110738627   0000000000000000000000000000ARRB200006250358              82431399         0000000000000609000060480                                                                                                                                                                                                                                                                                                                                                        
41.30 00012431000296202                        00069000000864000800048                    000000000                    2021020900000000560000358110738634   0000000000000000000000000000ARRB150007350358              82431399         0000000000000522000051840                                                                                                                                                                                                                                                                                                                                                        
41.20 00012431000296202                        00004358              82431400         00000007488UNI                 0000000   000007488000000000000000000   000000000   0000000000000000010000044928020210209                    0000000000               00048                                                                                                                                                                                                                                                                                                                                                        
41.30 00012431000296202                        00004000001152000800048                    000000000                    2021020900000000560000358110738252   0000000000000000000000000000ARRB190001050358              82431400         0000000000000696000069120                                                                                                                                                                                                                                                                                                                                                        
41.30 00012431000296202                        00004000001152000800048                    000000000                    2021020900000000560000358110738306   0000000000000000000000000000ARRB200008350358              82431400         0000000000000696000069120                                                                                                                                                                                                                                                                                                                                                        
41.30 00012431000296202                        00004000001152000800048                    000000000                    2021020900000000560000358110738313   0000000000000000000000000000ARRB200007950358              82431400         0000000000000696000069120                                                                                                                                                                                                                                                                                                                                                        
41.30 00012431000296202                        00004000000576000800048                    000000000                    2021020900000000560000358110738580   0000000000000000000000000000ARRB170007900358              82431400         0000000000000348000034560                                                                                                                                                                                                                                                                                                                                                        
41.30 00012431000296202                        00004000001152000800048                    000000000                    2021020900000000560000358110738597   0000000000000000000000000000ARRB180006340358              82431400         0000000000000696000069120                                                                                                                                                                                                                                                                                                                                                        
41.30 00012431000296202                        00004000001152000800048                    000000000                    2021020900000000560000358110738603   0000000000000000000000000000ARRB180002940358              82431400         0000000000000696000069120                                                                                                                                                                                                                                                                                                                                                        
41.30 00012431000296202                        00004000001152000800048                    000000000                    2021020900000000560000358110739549   0000000000000000000000000000ARRB190008450358              82431400         0000000000000696000069120                                                                                                                                                                                                                                                                                                                                                        
41.20 00012431000296202                        00037358              82431401         00000000480UNI                 0000000   000000480000000000000000000   000000000   0000000000000000010000004464020210209                    0000000000               00080                                                                                                                                                                                                                                                                                                                                                        
41.30 00012431000296202                        00037000000480001000080                    000000000                    2021020900000000560000358110738924   0000000000000000000000000000ARRB090005900358              82431401         0000000000000444000044640                                                                                                                                                                                                                                                                                                                                                        
41.20 00012431000296202                        00053358              82431422         00000000736UNI                 0000000   000000736000000000000000000   000000000   0000000000000000010000002281620210208                    0000000000               00032                                                                                                                                                                                                                                                                                                                                                        
41.30 00012431000296202                        00053000000736000400032                    000000000                    2021020800000000560000358110732168   0000000000000000000000000000ARRB170006700358              82431422         0000000000000230000022816                                                                                                                                                                                                                                                                                                                                                        
41.20 00012431000296202                        00029358              82431430         00000001008UNI                 0000000   000001008000000000000000000   000000000   0000000000000000010000007257620210208                    0000000000               00048                                                                                                                                                                                                                                                                                                                                                        
41.30 00012431000296202                        00029000001008000800048                    000000000                    2021020800000000560000358110734773   0000000000000000000000000000ARRB130003050358              82431430         0000000000000728700072576                                                                                                                                                                                                                                                                                                                                                        
41.20 00012431000296202                        00070358              82431435         00000000624UNI                 0000000   000000624000000000000000000   000000000   0000000000000000010000004430420210208                    0000000000               00048                                                                                                                                                                                                                                                                                                                                                        
41.30 00012431000296202                        00070000000624000800048                    000000000                    2021020800000000560000358110735183   0000000000000000000000000000ARRB130005330358              82431435         0000000000000442000044304                                                                                                                                                                                                                                                                                                                                                        
41.20 00012431000296202                        00046358              82431444         00000000480UNI                 0000000   000000480000000000000000000   000000000   0000000000000000010000004800020210209                    0000000000               00048                                                                                                                                                                                                                                                                                                                                                        
41.30 00012431000296202                        00046000000480000800048                    000000000                    2021020900000000560000358110738276   0000000000000000000000000000ARRB160008430358              82431444         0000000000000480000048000                                                                                                                                                                                                                                                                                                                                                        
41.20 00012431000296202                        00041358              82431446         00000000576UNI                 0000000   000000576000000000000000000   000000000   0000000000000000010000005760020210209                    0000000000               00048                                                                                                                                                                                                                                                                                                                                                        
41.30 00012431000296202                        00041000000576000800048                    000000000                    2021020900000000560000358110739235   0000000000000000000000000000ARRB160004920358              82431446         0000000000000576000057600                                                                                                                                                                                                                                                                                                                                                        
41.20 00012431000296202                        00008358              82431449         00000000560UNI                 0000000   000000560000000000000000000   000000000   0000000000000000010000002184020210208                    0000000000               00080                                                                                                                                                                                                                                                                                                                                                        
41.30 00012431000296202                        00008000000560001000080                    000000000                    2021020800000000560000358110732120   0000000000000000000000000000ARRB140005100358              82431449         0000000000000217000021840                                                                                                                                                                                                                                                                                                                                                        
41.20 00012431000296202                        00067358              82431451         00000000720UNI                 0000000   000000720000000000000000000   000000000   0000000000000000010000002808020210208                    0000000000               00080                                                                                                                                                                                                                                                                                                                                                        
41.30 00012431000296202                        00067000000720001000080                    000000000                    2021020800000000560000358110735299   0000000000000000000000000000ARRB100005700358              82431451         0000000000000278100028080                                                                                                                                                                                                                                                                                                                                                        
41.20 00012431000296202                        00068358              82431453         00000000840UNI                 0000000   000000840000000000000000000   000000000   0000000000000000010000002772020210208                    0000000000               00084                                                                                                                                                                                                                                                                                                                                                        
41.30 00012431000296202                        00068000000840001400084                    000000000                    2021020800000000560000358110732045   0000000000000000000000000000ARRB170007800358              82431453         0000000000000280000027720                                                                                                                                                                                                                                                                                                                                                        
41.20 00012431000296202                        00049358              82431455         00000000588UNI                 0000000   000000588000000000000000000   000000000   0000000000000000010000002293220210208                    0000000000               00084                                                                                                                                                                                                                                                                                                                                                        
41.30 00012431000296202                        00049000000588001400084                    000000000                    2021020800000000560000358110732113   0000000000000000000000000000ARRB170006900358              82431455         0000000000000331380022932                                                                                                                                                                                                                                                                                                                                                        
41.20 00012431000296202                        00032358              82431457         00000000504UNI                 0000000   000000504000000000000000000   000000000   0000000000000000010000001764020210208                    0000000000               00084                                                                                                                                                                                                                                                                                                                                                        
41.30 00012431000296202                        00032000000504001400084                    000000000                    2021020800000000560000358110733080   0000000000000000000000000000ARRB170007500358              82431457         0000000000000174000017640                                                                                                                                                                                                                                                                                                                                                        
41.20 00012431000296202                        00011358              82431458         00000000588UNI                 0000000   000000588000000000000000000   000000000   0000000000000000010000002058020210208                    0000000000               00084                                                                                                                                                                                                                                                                                                                                                        
41.30 00012431000296202                        00011000000588001400084                    000000000                    2021020800000000560000358110732007   0000000000000000000000000000ARRB170007600358              82431458         0000000000000203000020580                                                                                                                                                                                                                                                                                                                                                        
41.20 00012431000296202                        00010358              82431460         00000000384UNI                 0000000   000000384000000000000000000   000000000   0000000000000000010000003532820210208                    0000000000               00064                                                                                                                                                                                                                                                                                                                                                        
41.30 00012431000296202                        00010000000384000800064                    000000000                    2021020800000000560000358110732700   0000000000000000000000000000ARRB110004700358              82431460         0000000000000352800035328                                                                                                                                                                                                                                                                                                                                                        
41.20 00012431000296202                        00033358              82431464         00000000384UNI                 0000000   000000384000000000000000000   000000000   0000000000000000010000002112020210208                    0000000000               00064                                                                                                                                                                                                                                                                                                                                                        
41.30 00012431000296202                        00033000000384000800064                    000000000                    2021020800000000560000358110732489   0000000000000000000000000000ARRB170000700358              82431464         0000000000000300660021120                                                                                                                                                                                                                                                                                                                                                        
41.20 00012431000296202                        00013358              82431473         00000000588UNI                 0000000   000000588000000000000000000   000000000   0000000000000000010000002116820210208                    0000000000               00084                                                                                                                                                                                                                                                                                                                                                        
41.30 00012431000296202                        00013000000588001400084                    000000000                    2021020800000000560000358110732076   0000000000000000000000000000ARRB170008000358              82431473         0000000000000210000021168                                                                                                                                                                                                                                                                                                                                                        
41.20 00012431000296202                        00002358              82431475         00000000840UNI                 0000000   000000840000000000000000000   000000000   0000000000000000010000003024020210208                    0000000000               00084                                                                                                                                                                                                                                                                                                                                                        
41.30 00012431000296202                        00002000000840001400084                    000000000                    2021020800000000560000358110733066   0000000000000000000000000000ARRB150004500358              82431475         0000000000000300000030240                                                                                                                                                                                                                                                                                                                                                        
41.20 00012431000296202                        00077358              82431477         00000001104UNI                 0000000   000001104000000000000000000   000000000   0000000000000000010000007838420210208                    0000000000               00048                                                                                                                                                                                                                                                                                                                                                        
41.30 00012431000296202                        00077000001104000800048                    000000000                    2021020800000000560000358110735343   0000000000000000000000000000ARRB120005850358              82431477         0000000000000782000078384                                                                                                                                                                                                                                                                                                                                                        
41.20 00012431000296202                        00072358              82431478         00000000432UNI                 0000000   000000432000000000000000000   000000000   0000000000000000010000002203220210208                    0000000000               00048                                                                                                                                                                                                                                                                                                                                                        
41.30 00012431000296202                        00072000000432000800048                    000000000                    2021020800000000560000358110733240   0000000000000000000000000000ARRB110001800358              82431478         0000000000000222300022032                                                                                                                                                                                                                                                                                                                                                        
41.20 00012431000296202                        00039358              82431479         00000000208UNI                 0000000   000000208000000000000000000   000000000   0000000000000000010000005595220210208                    0000000000               00016                                                                                                                                                                                                                                                                                                                                                        
41.30 00012431000296202                        00039000000208000400016                    000000000                    2021020800000000560000358110735459   0000000000000000000000000000ARRB090008220358              82431479         0000000000000559000055952                                                                                                                                                                                                                                                                                                                                                        
41.20 00012431000296202                        00015358              82431481         00000000192UNI                 0000000   000000192000000000000000000   000000000   0000000000000000010000003244820210208                    0000000000               00016                                                                                                                                                                                                                                                                                                                                                        
41.30 00012431000296202                        00015000000192000400016                    000000000                    2021020800000000560000358110733271   0000000000000000000000000000ARRB170001900358              82431481         0000000000000324000032448                                                                                                                                                                                                                                                                                                                                                        
41.20 00012431000296202                        00052358              82431482         00000000304UNI                 0000000   000000304000000000000000000   000000000   0000000000000000010000008360020210208                    0000000000               00016                                                                                                                                                                                                                                                                                                                                                        
41.30 00012431000296202                        00052000000048000400016                    000000000                    2021020800000000560000358110732694   0000000000000000000000000000ARRB170007400358              82431482         0000000000000132000013200                                                                                                                                                                                                                                                                                                                                                        
41.30 00012431000296202                        00052000000128000400016                    000000000                    2021020800000000560000358110735480   0000000000000000000000000000ARRB170003530358              82431482         0000000000000352000035200                                                                                                                                                                                                                                                                                                                                                        
41.30 00012431000296202                        00052000000128000400016                    000000000                    2021020800000000560000358110735497   0000000000000000000000000000ARRB170003130358              82431482         0000000000000352000035200                                                                                                                                                                                                                                                                                                                                                        
41.20 00012431000296202                        00063358              82431484         00000002864UNI                 0000000   000002896000000000000000000   000000000   0000000000000000010000050100820210215                    0000000000               00016                                                                                                                                                                                                                                                                                                                                                        
41.30 00012431000296202                        00063000000336000400016                    000000000                    2021020800000000560000358110734759   0000000000000000000000000000ARRB130002350358              82431484         0000000000000579600058128                                                                                                                                                                                                                                                                                                                                                        
41.30 00012431000296202                        00063000000272000400016                    000000000                    2021020800000000560000358110734766   0000000000000000000000000000ARRB130002850358              82431484         0000000000000469200047056                                                                                                                                                                                                                                                                                                                                                        
41.30 00012431000296202                        00063000000336000400016                    000000000                    2021020800000000560000358110735169   0000000000000000000000000000ARRB130004950358              82431484         0000000000000579600058128                                                                                                                                                                                                                                                                                                                                                        
41.30 00012431000296202                        00063000000336000400016                    000000000                    2021020800000000560000358110735176   0000000000000000000000000000ARRB130004250358              82431484         0000000000000579600058128                                                                                                                                                                                                                                                                                                                                                        
41.30 00012431000296202                        00063000000336000400016                    000000000                    2021020800000000560000358110735213   0000000000000000000000000000ARRB130007350358              82431484         0000000000000579600058128                                                                                                                                                                                                                                                                                                                                                        
41.30 00012431000296202                        00063000000336000400016                    000000000                    2021020800000000560000358110735220   0000000000000000000000000000ARRB130007750358              82431484         0000000000000579600058128                                                                                                                                                                                                                                                                                                                                                        
41.30 00012431000296202                        00063000000336000400016                    000000000                    2021020800000000560000358110735237   0000000000000000000000000000ARRB120003650358              82431484         0000000000000579600058128                                                                                                                                                                                                                                                                                                                                                        
41.30 00012431000296202                        00063000000336000400016                    000000000                    2021020900000000560000358110738245   0000000000000000000000000000ARRB200006650358              82431484         0000000000000579600058128                                                                                                                                                                                                                                                                                                                                                        
41.30 00012431000296202                        00063000000272000400016                    000000000                    2021021500000000560000358110766255   0000000000000000000000000000ARRB140003540358              82431484         0000000000000469200047056                                                                                                                                                                                                                                                                                                                                                        
41.20 00012431000296202                        00058358              82431485         00000000896UNI                 0000000   000000896000000000000000000   000000000   0000000000000000010000008243220210209                    0000000000               00064                                                                                                                                                                                                                                                                                                                                                        
41.30 00012431000296202                        00058000000896000800064                    000000000                    2021020900000000560000358110739242   0000000000000000000000000000ARRB110007530358              82431485         0000000000000826000082432                                                                                                                                                                                                                                                                                                                                                        
41.20 00012431000296202                        00056358              82431486         00000001712UNI                 0000000   000001712000000000000000000   000000000   0000000000000000010000028932820210209                    0000000000               00016                                                                                                                                                                                                                                                                                                                                                        
41.30 00012431000296202                        00056000000336000400016                    000000000                    2021020800000000560000358110735190   0000000000000000000000000000ARRB130003150358              82431486         0000000000000567000056784                                                                                                                                                                                                                                                                                                                                                        
41.30 00012431000296202                        00056000000336000400016                    000000000                    2021020800000000560000358110735206   0000000000000000000000000000ARRB130005350358              82431486         0000000000000567000056784                                                                                                                                                                                                                                                                                                                                                        
41.30 00012431000296202                        00056000000336000400016                    000000000                    2021020900000000560000358110738283   0000000000000000000000000000ARRB200008150358              82431486         0000000000000567000056784                                                                                                                                                                                                                                                                                                                                                        
41.30 00012431000296202                        00056000000336000400016                    000000000                    2021020900000000560000358110738368   0000000000000000000000000000ARRB190000650358              82431486         0000000000000567000056784                                                                                                                                                                                                                                                                                                                                                        
41.30 00012431000296202                        00056000000368000400016                    000000000                    2021020900000000560000358110738382   0000000000000000000000000000ARRB190002250358              82431486         0000000000000621000062192                                                                                                                                                                                                                                                                                                                                                        
41.20 00012431000296202                        00062358              82431487         00000001472UNI                 0000000   000001472000000000000000000   000000000   0000000000000000010000013395220210208                    0000000000               00064                                                                                                                                                                                                                                                                                                                                                        
41.30 00012431000296202                        00062000000768000800064                    000000000                    2021020800000000560000358110735312   0000000000000000000000000000ARRB130002500358              82431487         0000000000000696000069888                                                                                                                                                                                                                                                                                                                                                        
41.30 00012431000296202                        00062000000704000800064                    000000000                    2021020800000000560000358110735329   0000000000000000000000000000ARRB130003950358              82431487         0000000000000638000064064                                                                                                                                                                                                                                                                                                                                                        
41.20 00012431000296202                        00050358              82431488         00000001280UNI                 0000000   000001264000000000000000000   000000000   0000000000000000010000021361620210209                    0000000000               00016                                                                                                                                                                                                                                                                                                                                                        
