00.00 FGE50LMALV    EXTRACT_51    20210106181534239428505.00LMPT0000M51       FGX10     Expedi\ão  N¢: 00077919                                                         358010003           00000000                                                            
51.00 21000363000358O004          38111736                      LS    1202101080000O004          12101001320210105003000000000007791920210106175845002           15                                LE-1514      787209             1LE-1514          2100001911 
51.01 21000363000358O004          38111736                           3                                                 00000000                                   00000000                                                                        ULMALVCACS    
51.05 21000363000358O004          38111736                      CDTICIRLDATCDATP                                                                      20210104                                                                                                  
51.05 21000363000358O004          38111736                      PRIO            NO                                                                                                                                                                              
51.30 21000363000358O004          38111736                      00000                 00000000000 00000000000                       0000000005600003585521150310000000055211503000           0000000000000000000P     000000000                  00000000   0000
51.31 21000363000358O004          38111736                      00000                 000000                         00000084126                                      0328553    0000000000000000                                0000000                        
51.20 21000363000358O004          38111736                      0000116985024         005901238217282    000000005UNI1000000005 00000000000        000000000000000                                                       00000000000000000000000000000          
51.27 21000363000358O004          38111736                      000012222ARTBCDCLLICLREFBCX FERRAM DEXTER 46CM              0                                                                     16985024                                                      
51.20 21000363000358O004          38111736                      0000216985031         005901238217305    000000003UNI1000000003 00000000000        000000000000000                                                       00000000000000000000000000000          
51.27 21000363000358O004          38111736                      000022222ARTBCDCLLICLREFBCX FERRAM DEXTER 54.5CM            0                                                                     16985031                                                      
51.20 21000363000358O004          38111736                      0000319709984         003276000237662    000000001UNI1000000001 00000000000        000000000000000                                                       00000000000000000000000000000          
51.27 21000363000358O004          38111736                      000032222ARTBCDCLLICLREFBASPIRADOR DEXTER POWER 30L         0                                                                     19709984                                                      
51.20 21000363000358O004          38111736                      0000481866771         003276000281535    000000002UNI1000000002 00000000000        000000000000000                                                       00000000000000000000000000000          
51.27 21000363000358O004          38111736                      000042222ARTBCDCLLICLREFBREBARB 115M 500W                   0                                                                     81866771                                                      
51.20 21000363000358O004          38111736                      0000581866568         003276000288046    000000003UNI1000000003 00000000000        000000000000000                                                       00000000000000000000000000000          
51.27 21000363000358O004          38111736                      000052222ARTBCDCLLICLREFBAPARAF S/FIO 3.6V NI-CD            0                                                                     81866568                                                      
51.20 21000363000358O004          38111736                      0000619671834         003276000251859    000000002UNI1000000002 00000000000        000000000000000                                                       00000000000000000000000000000          
51.27 21000363000358O004          38111736                      000062222ARTBCDCLLICLREFBASPIRADOR PRACTYL 15L EC815-1250   0                                                                     19671834                                                      
51.20 21000363000358O004          38111736                      0000713133505         003351840842327    000000001UNI1000000001 00000000000        000000000000000                                                       00000000000000000000000000000          
51.27 21000363000358O004          38111736                      000072222ARTBCDCLLICLREFBBANCADA TRAB FIXA MET C/PAINEL P/FE0                                                                     13133505                                                      
51.99 21000363000358O004          38111736                      00070000002800001000001250000070000008412600000084126000                                                                                                                                        
51.00 21000743000358O004          38112137                      LS    1202101110000O004          12101002120210106003000000000007791920210106175845002           15                                LE-1514      787209             0LE-1514          2100001912 
51.01 21000743000358O004          38112137                           3                                                 00000000                                   00000000                                                                        ULMALVCACS    
51.05 21000743000358O004          38112137                      CDTICIRLDATCDATP                                                                      20210105                                                                                                  
51.05 21000743000358O004          38112137                      PRIO            NO                                                                                                                                                                              
51.30 21000743000358O004          38112137                      00000                 00000000000 00000000000                       0000000005600003585521252520000000055212525000           0000000000000000000P     000000000                  00000000   0000
51.31 21000743000358O004          38112137                      00000                 000000                         00000338122                                      0059847    0000000000000000                                0000000                        
51.20 21000743000358O004          38112137                      0001481872206         008425432081236    000000007UNI1000000007 00000000000        000000000000000                                                       00000000000000000000000000000          
51.27 21000743000358O004          38112137                      000142222ARTBCDCLLICLREFBPAV LAM ARTENS INTENSO FARO 031    0                                                                     81872206                                                      
51.20 21000743000358O004          38112137                      0001680052812         003276000327912    000000002UNI1000000002 00000000000        000000000000000                                                       00000000000000000000000000000          
51.27 21000743000358O004          38112137                      000162222ARTBCDCLLICLREFBADAPTADOR CABIDE OMBROS LARGOS PL S0                                                                     80052812                                                      
51.20 21000743000358O004          38112137                      0001781872185         003276006185042    000000014UNI1000000014 00000000000        000000000000000                                                       00000000000000000000000000000          
51.27 21000743000358O004          38112137                      000172222ARTBCDCLLICLREFBPAV LAM ARTENS FORTE MAYA 035      0                                                                     81872185                                                      
51.30 21000743000358O004          38112137                      00000                 00000000000 00000000000                       0000000005600003585521255280000000055212552000           0000000000000000000P     000000000                  00000000   0000
51.31 21000743000358O004          38112137                      00000                 000000                         00000049180                                      0060400    0000000000000000                                0000000                        
51.20 21000743000358O004          38112137                      0000611034303         008436563910135    000000010UNI1000000010 00000000000        000000000000000                                                       00000000000000000000000000000          
51.27 21000743000358O004          38112137                      000062222ARTBCDCLLICLREFBPAINEL CONTRAPLACADO 15MM 800X400  0                                                                     11034303                                                      
51.20 21000743000358O004          38112137                      0001511059342         008436563910036    000000020UNI1000000020 00000000000        000000000000000                                                       00000000000000000000000000000          
51.27 21000743000358O004          38112137                      000152222ARTBCDCLLICLREFBPAINEL CONTRAPLACADO 5MM 600X300   0                                                                     11059342                                                      
51.20 21000743000358O004          38112137                      0000381980472         005600437705865    000000010UNI1000000010 00000000000        000000000000000                                                       00000000000000000000000000000          
51.27 21000743000358O004          38112137                      000032222ARTBCDCLLICLREFBPLACA AGLOMERADO JW 10MM 800X400   0                                                                     81980472                                                      
51.30 21000743000358O004          38112137                      00000                 00000000000 00000000000                       0000000005600003585521257020000000055212570000           0000000000000000000P     000000000                  00000000   0000
51.31 21000743000358O004          38112137                      00000                 000000                         00001173200                                      0514300    0000000000000000                                0000000                        
51.20 21000743000358O004          38112137                      0000510497095         008433770018630    000000010UNI1000000010 00000000000        000000000000000                                                       00000000000000000000000000000          
51.27 21000743000358O004          38112137                      000052222ARTBCDCLLICLREFBPLACA MELAMINA BR LISO 19MM 2440X120                                                                     10497095                                                      
51.20 21000743000358O004          38112137                      0000711190914         008433770019088    000000010UNI1000000010 00000000000        000000000000000                                                       00000000000000000000000000000          
51.27 21000743000358O004          38112137                      000072222ARTBCDCLLICLREFBPLACA MDF 3MM 2440X1220            0                                                                     11190914                                                      
51.20 21000743000358O004          38112137                      0000818896535         008436563910029    000000005UNI1000000005 00000000000        000000000000000                                                       00000000000000000000000000000          
51.27 21000743000358O004          38112137                      000082222ARTBCDCLLICLREFBPLACA CONTRAPLACADO 10MM 2500X1220 0                                                                     18896535                                                      
51.20 21000743000358O004          38112137                      0000918896675         008436563910050    000000008UNI1000000008 00000000000        000000000000000                                                       00000000000000000000000000000          
51.27 21000743000358O004          38112137                      000092222ARTBCDCLLICLREFBPLACA CONTRAPLACADO 15MM 2500X1220 0                                                                     18896675                                                      
51.20 21000743000358O004          38112137                      0001018896752         008436563910074    000000005UNI1000000005 00000000000        000000000000000                                                       00000000000000000000000000000          
51.27 21000743000358O004          38112137                      000102222ARTBCDCLLICLREFBPLACA CONTRAPLACADO 5MM 2500X1220  0                                                                     18896752                                                      
51.20 21000743000358O004          38112137                      0001119112086         008436563910166    000000010UNI1000000010 00000000000        000000000000000                                                       00000000000000000000000000000          
51.27 21000743000358O004          38112137                      000112222ARTBCDCLLICLREFBPLACA CONTRAPLACADO EXT 10MM 2500X10                                                                     19112086                                                      
51.20 21000743000358O004          38112137                      0001219375685         008425432025247    000000010UNI1000000010 00000000000        000000000000000                                                       00000000000000000000000000000          
51.27 21000743000358O004          38112137                      000122222ARTBCDCLLICLREFBPLACA AGLOMERADO CRU 10MM 2440X12200                                                                     19375685                                                      
51.20 21000743000358O004          38112137                      0000400137970         008433770019095    000000010UNI1000000010 00000000000        000000000000000                                                       00000000000000000000000000000          
51.27 21000743000358O004          38112137                      000042222ARTBCDCLLICLREFBPLACA MDF 10MM 2440X1220           0                                                                     137970                                                        
51.30 21000743000358O004          38112137                      00000                 00000000000 00000000000                       0000000005600003585521257190000000055212571000           0000000000000000000P     000000000                  00000000   0000
51.31 21000743000358O004          38112137                      00000                 000000                         00000067600                                      0274500    0000000000000000                                0000000                        
51.20 21000743000358O004          38112137                      0000918896675         008436563910050    000000004UNI1000000004 00000000000        000000000000000                                                       00000000000000000000000000000          
51.27 21000743000358O004          38112137                      000092222ARTBCDCLLICLREFBPLACA CONTRAPLACADO 15MM 2500X1220 0                                                                     18896675                                                      
51.30 21000743000358O004          38112137                      00000                 00000000000 00000000000                       0000000005600003585521257570000000055212575000           0000000000000000000P     000000000                  00000000   0000
51.31 21000743000358O004          38112137                      00000                 000000                         00000004762                                      0020608    0000000000000000                                0000000                        
51.20 21000743000358O004          38112137                      0001316661792         003276004859648    000000001UNI1000000001 00000000000        000000000000000                                                       00000000000000000000000000000          
51.27 21000743000358O004          38112137                      000132222ARTBCDCLLICLREFBGUIA ALUM RSP80 PTA CORRER 180CM 400                                                                     16661792                                                      
51.99 21000743000358O004          38112137                      00150000006600005000013404000150000163275500001632864000                                                                                                                                        
51.00 21000745000358O004          38112139                      LS    1202101110000O004          12101002120210106003000000000007791920210106175845002           15                                LE-1514      787209             1LE-1514          2100001913 
51.01 21000745000358O004          38112139                           3                                                 00000000                                   00000000                                                                        ULMALVCACS    
51.05 21000745000358O004          38112139                      CDTICIRLDATCDATP                                                                      20210105                                                                                                  
51.05 21000745000358O004          38112139                      PRIO            NO                                                                                                                                                                              
51.30 21000745000358O004          38112139                      00000                 00000000000 00000000000                       0000000005600003585521254500000000055212545000           0000000000000000000P     000000000                  00000000   0000
51.31 21000745000358O004          38112139                      00000                 000000                         00000075380                                      0262692    0000000000000000                                0000000                        
51.20 21000745000358O004          38112139                      0000116985024         005901238217282    000000005UNI1000000005 00000000000        000000000000000                                                       00000000000000000000000000000          
51.27 21000745000358O004          38112139                      000012222ARTBCDCLLICLREFBCX FERRAM DEXTER 46CM              0                                                                     16985024                                                      
51.20 21000745000358O004          38112139                      0000200956713         003276000398066    000000003UNI1000000003 00000000000        000000000000000                                                       00000000000000000000000000000          
51.27 21000745000358O004          38112139                      000022222ARTBCDCLLICLREFBMARTELO HOR DEXTER IV 800W         0                                                                     956713                                                        
51.20 21000745000358O004          38112139                      0000319709956         003276000237679    000000004UNI1000000004 00000000000        000000000000000                                                       00000000000000000000000000000          
51.27 21000745000358O004          38112139                      000032222ARTBCDCLLICLREFBASPIRADOR DEXTER POWER 20L         0                                                                     19709956                                                      
51.20 21000745000358O004          38112139                      0000419282312         003276000228745    000000002UNI1000000002 00000000000        000000000000000                                                       00000000000000000000000000000          
51.27 21000745000358O004          38112139                      000042222ARTBCDCLLICLREFBLIXADORA PAREDE DEXTER IV 710W     0                                                                     19282312                                                      
51.99 21000745000358O004          38112139                      00040000001600001000001100000040000007538000000075380000                                                                                                                                        
51.00 21000748000358O004          38112142                      LS    1202101110000O004          12101002120210106003000000000007791920210106175845002           15                                LE-1514      787209             0LE-1514          2100001914 
51.01 21000748000358O004          38112142                           3                                                 00000000                                   00000000                                                                        ULMALVCACS    
51.05 21000748000358O004          38112142                      CDTICIRLDATCDATP                                                                      20210105                                                                                                  
51.05 21000748000358O004          38112142                      PRIO            NO                                                                                                                                                                              
51.30 21000748000358O004          38112142                      00000                 00000000000 00000000000                       0000000005600003585521252690000000055212526000           0000000000000000000P     000000000                  00000000   0000
51.31 21000748000358O004          38112142                      00000                 000000                         00000029125                                      0279992    0000000000000000                                0000000                        
51.20 21000748000358O004          38112142                      0000219301296         003276000241942    000000001UNI1000000001 00000000000        000000000000000                                                       00000000000000000000000000000          
51.27 21000748000358O004          38112142                      000022222ARTBCDCLLICLREFBELECTROSERRA STERWINS ECS2 2000W 350                                                                     19301296                                                      
51.20 21000748000358O004          38112142                      0000381946374         003276000376804    000000005UNI1000000005 00000000000        000000000000000                                                       00000000000000000000000000000          
51.27 21000748000358O004          38112142                      000032222ARTBCDCLLICLREFBCORTA SEBES EHT2-50.3 1 500W STERWI0                                                                     81946374                                                      
51.30 21000748000358O004          38112142                      00000                 00000000000 00000000000                       0000000005600003585521256890000000055212568000           0000000000000000000P     000000000                  00000000   0000
51.31 21000748000358O004          38112142                      00000                 000000                         00000008020                                      0033452    0000000000000000                                0000000                        
51.20 21000748000358O004          38112142                      0000181956421         003276000400936    000000002UNI1000000002 00000000000        000000000000000                                                       00000000000000000000000000000          
51.27 21000748000358O004          38112142                      000012222ARTBCDCLLICLREFBCADEIRA ALU TEX ORION GAMMA GR C/BR0                                                                     81956421                                                      
51.99 21000748000358O004          38112142                      00030000001400002000000350000030000003714500000037145000                                                                                                                                        
99.00 FGE50LMALV    M51           20210106181535239428500000144                                                                                                                                                                                                 
