00.00 FGE50LMALV    EXTRACT_41    20210105153547239170405.00LMPT0000M41       FGX10     Recepcao N: 00011670-000                                                        358010003           00000000                                                                                                                                                                                                                                                                                                                                                                                                                    
41.00 00011670000275306                                  ARRSTD1358202657        1             202012300900202012300900202101051535192                    10                 03                                       00000000   13276000000006 MSKU6968345                                                                                                                                                                                                                                                                                                                                                             
41.20 00011670000275306                        00001358              81929319         00000011440UNI                 0000000   000011440000000000000000000   000000000   0000000000000000010000045760020210104                    0000000000               00080                                                                                                                                                                                                                                                                                                                                                        
41.30 00011670000275306                        00001000000640004000080                    000000000                    2021010400000000560000358110632338   0000000000000000000000000000ARRB080003520358              81929319         0000000000000328000025600                                                                                                                                                                                                                                                                                                                                                        
41.30 00011670000275306                        00001000000960004000080                    000000000                    2021010400000000560000358110632345   0000000000000000000000000000ARRB080003330358              81929319         0000000000000492000038400                                                                                                                                                                                                                                                                                                                                                        
41.30 00011670000275306                        00001000000960004000080                    000000000                    2021010400000000560000358110632352   0000000000000000000000000000ARRB080006030358              81929319         0000000000000492000038400                                                                                                                                                                                                                                                                                                                                                        
41.30 00011670000275306                        00001000000960004000080                    000000000                    2021010400000000560000358110632369   0000000000000000000000000000ARRB080004630358              81929319         0000000000000492000038400                                                                                                                                                                                                                                                                                                                                                        
41.30 00011670000275306                        00001000000640004000080                    000000000                    2021010400000000560000358110632376   0000000000000000000000000000ARRB080000720358              81929319         0000000000000328000025600                                                                                                                                                                                                                                                                                                                                                        
41.30 00011670000275306                        00001000000960004000080                    000000000                    2021010400000000560000358110632383   0000000000000000000000000000ARRB080000820358              81929319         0000000000000492000038400                                                                                                                                                                                                                                                                                                                                                        
41.30 00011670000275306                        00001000000640004000080                    000000000                    2021010400000000560000358110632390   0000000000000000000000000000ARRB080001020358              81929319         0000000000000328000025600                                                                                                                                                                                                                                                                                                                                                        
41.30 00011670000275306                        00001000000960004000080                    000000000                    2021010400000000560000358110632406   0000000000000000000000000000ARRB080001220358              81929319         0000000000000492000038400                                                                                                                                                                                                                                                                                                                                                        
41.30 00011670000275306                        00001000000640004000080                    000000000                    2021010400000000560000358110632413   0000000000000000000000000000ARRB080001320358              81929319         0000000000000328000025600                                                                                                                                                                                                                                                                                                                                                        
41.30 00011670000275306                        00001000000960004000080                    000000000                    2021010400000000560000358110632420   0000000000000000000000000000ARRB080003120358              81929319         0000000000000492000038400                                                                                                                                                                                                                                                                                                                                                        
41.30 00011670000275306                        00001000000960004000080                    000000000                    2021010400000000560000358110632437   0000000000000000000000000000ARRB080002320358              81929319         0000000000000492000038400                                                                                                                                                                                                                                                                                                                                                        
41.30 00011670000275306                        00001000000960004000080                    000000000                    2021010400000000560000358110632444   0000000000000000000000000000ARRB080001520358              81929319         0000000000000492000038400                                                                                                                                                                                                                                                                                                                                                        
41.30 00011670000275306                        00001000000960004000080                    000000000                    2021010400000000560000358110632451   0000000000000000000000000000ARRB080001720358              81929319         0000000000000492000038400                                                                                                                                                                                                                                                                                                                                                        
41.30 00011670000275306                        00001000000240004000080                    000000000                    2021010400000000560000358110632789   0000000000000000000000000000ARRB080003710358              81929319         0000000000000123000009600                                                                                                                                                                                                                                                                                                                                                        
41.99 00011670000275306                        00010001400001430000001                                                                                                                                                                                                                                                                                                                                                                                                                                                                                                                                                  
99.00 FGE50LMALV    M41           20210105153547239170400000017                                                                                                                                                                                                                                                                                                                                                                                                                                                                                                                                                         
