00.00 FGE50LMALV    EXTRACT_51    20210107090241239497405.00LMPT0000M51       FGX10     Expedi\ão  N¢: 00077993                                                         358010003           00000000                                                            
51.00 21000359000358O003          38111730                      LS    1202101080000O003          12101001620210105003000000000007799320210107083843003           15                                L207059      787192             1L207059          2100002085 
51.01 21000359000358O003          38111730                           3                                                 00000000                                   00000000                                                                        ULMALVALOP    
51.05 21000359000358O003          38111730                      CDTICIRLDATCDATP                                                                      20210104                                                                                                  
51.05 21000359000358O003          38111730                      PRIO            NO                                                                                                                                                                              
51.30 21000359000358O003          38111730                      00000                 00000000000 00000000000                       0000000005600003585521174550000000055211745000           0000000000000000000P     000000000                  00000000   0000
51.31 21000359000358O003          38111730                      00000                 000000                         00000154699                                      0814540    0000000000000000                                0000000                        
51.20 21000359000358O003          38111730                      0000116984940         005901238220831    000000001UNI1000000001 00000000000        000000000000000                                                       00000000000000000000000000000          
51.27 21000359000358O003          38111730                      000012222ARTBCDCLLICLREFBCX FERRAM BASIC 31CM               0                                                                     16984940                                                      
51.20 21000359000358O003          38111730                      0001182038774         003276000620655    000000004UNI1000000004 00000000000        000000000000000                                                       00000000000000000000000000000          
51.27 21000359000358O003          38111730                      000112222ARTBCDCLLICLREFBSERRA DE MESA 800W 200MM PP        0                                                                     82038774                                                      
51.20 21000359000358O003          38111730                      0001282047633         003276000629030    000000006UNI1000000006 00000000000        000000000000000                                                       00000000000000000000000000000          
51.27 21000359000358O003          38111730                      000122222ARTBCDCLLICLREFBBBQ S/FIO 12V DEXTER POWER 1BAT 2AH0                                                                     82047633                                                      
51.20 21000359000358O003          38111730                      0000216985024         005901238217282    000000004UNI1000000004 00000000000        000000000000000                                                       00000000000000000000000000000          
51.27 21000359000358O003          38111730                      000022222ARTBCDCLLICLREFBCX FERRAM DEXTER 46CM              0                                                                     16985024                                                      
51.20 21000359000358O003          38111730                      0000316985311         005901238220817    000000004UNI1000000004 00000000000        000000000000000                                                       00000000000000000000000000000          
51.27 21000359000358O003          38111730                      000032222ARTBCDCLLICLREFBCX FERRAM ABERTA 52CM              0                                                                     16985311                                                      
51.20 21000359000358O003          38111730                      0000400956713         003276000398066    000000003UNI1000000003 00000000000        000000000000000                                                       00000000000000000000000000000          
51.27 21000359000358O003          38111730                      000042222ARTBCDCLLICLREFBMARTELO HOR DEXTER IV 800W         0                                                                     956713                                                        
51.20 21000359000358O003          38111730                      0000519709984         003276000237662    000000002UNI1000000002 00000000000        000000000000000                                                       00000000000000000000000000000          
51.27 21000359000358O003          38111730                      000052222ARTBCDCLLICLREFBASPIRADOR DEXTER POWER 30L         0                                                                     19709984                                                      
51.20 21000359000358O003          38111730                      0000681867122         003276000275213    000000004UNI1000000004 00000000000        000000000000000                                                       00000000000000000000000000000          
51.27 21000359000358O003          38111730                      000062222ARTBCDCLLICLREFBPLAINA 600W                        0                                                                     81867122                                                      
51.20 21000359000358O003          38111730                      0000781866542         003276000281528    000000002UNI1000000002 00000000000        000000000000000                                                       00000000000000000000000000000          
51.27 21000359000358O003          38111730                      000072222ARTBCDCLLICLREFBBBQ C/FIO PERC 500W                0                                                                     81866542                                                      
51.20 21000359000358O003          38111730                      0000881866771         003276000281535    000000001UNI1000000001 00000000000        000000000000000                                                       00000000000000000000000000000          
51.27 21000359000358O003          38111730                      000082222ARTBCDCLLICLREFBREBARB 115M 500W                   0                                                                     81866771                                                      
51.20 21000359000358O003          38111730                      0000919283446         003276000229216    000000006UNI1000000006 00000000000        000000000000000                                                       00000000000000000000000000000          
51.27 21000359000358O003          38111730                      000092222ARTBCDCLLICLREFBPLAINA DEXTER IV 800W              0                                                                     19283446                                                      
51.30 21000359000358O003          38111730                      00000                 00000000000 00000000000                       0000000005600003580801835260000000055213427000           0000000000000000000P     000000000                  00000000   0000
51.31 21000359000358O003          38111730                      00000                 000000                         00000087960                                      0086454    0000000000000000                                0000000                        
51.20 21000359000358O003          38111730                      0001013133505         003351840842327    000000002UNI1000000002 00000000000        000000000000000                                                       00000000000000000000000000000          
51.27 21000359000358O003          38111730                      000102222ARTBCDCLLICLREFBBANCADA TRAB FIXA MET C/PAINEL P/FE0                                                                     13133505                                                      
51.20 21000359000358O003          38111730                      0000216985024         005901238217282    000000002UNI1000000002 00000000000        000000000000000                                                       00000000000000000000000000000          
51.27 21000359000358O003          38111730                      000022222ARTBCDCLLICLREFBCX FERRAM DEXTER 46CM              0                                                                     16985024                                                      
51.99 21000359000358O003          38111730                      00120000006000002000002396000120000024265900000242659000                                                                                                                                        
51.00 21000734000358O003          38112128                      LS    1202101110000O003          12101002320210106003000000000007799320210107083843003           15                                L207059      787192             1L207059          2100002086 
51.01 21000734000358O003          38112128                           3                                                 00000000                                   00000000                                                                        ULMALVALOP    
51.05 21000734000358O003          38112128                      CDTICIRLDATCDATP                                                                      20210105                                                                                                  
51.05 21000734000358O003          38112128                      PRIO            NO                                                                                                                                                                              
51.30 21000734000358O003          38112128                      00000                 00000000000 00000000000                       0000000005600003585521294270000000055212942000           0000000000000000000P     000000000                  00000000   0000
51.31 21000734000358O003          38112128                      00000                 000000                         00000887520                                      0038598    0000000000000000                                0000000                        
51.20 21000734000358O003          38112128                      0002481872233         003276006184915    000000030UNI1000000030 00000000000        000000000000000                                                       00000000000000000000000000000          
51.27 21000734000358O003          38112128                      000242222ARTBCDCLLICLREFBPAV LAM ARTENS MEDIO CHAMDOR 041   0                                                                     81872233                                                      
51.20 21000734000358O003          38112128                      0002781872224         008425432081342    000000024UNI1000000024 00000000000        000000000000000                                                       00000000000000000000000000000          
51.27 21000734000358O003          38112128                      000272222ARTBCDCLLICLREFBPAV LAM ARTENS INTENSO PLUS JAEN 040                                                                     81872224                                                      
51.30 21000734000358O003          38112128                      00000                 00000000000 00000000000                       0000000005600003585521294340000000055212943000           0000000000000000000P     000000000                  00000000   0000
51.31 21000734000358O003          38112128                      00000                 000000                         00000727810                                      0095543    0000000000000000                                0000000                        
51.20 21000734000358O003          38112128                      0002081872167         009007022257659    000000005UNI1000000005 00000000000        000000000000000                                                       00000000000000000000000000000          
51.27 21000734000358O003          38112128                      000202222ARTBCDCLLICLREFBPAV LAM ARTENS FORTE TAVIRA 049    0                                                                     81872167                                                      
51.20 21000734000358O003          38112128                      0002181872217         008425432081182    000000007UNI1000000007 00000000000        000000000000000                                                       00000000000000000000000000000          
51.27 21000734000358O003          38112128                      000212222ARTBCDCLLICLREFBPAV LAM ARTENS INTENSO AVILA 040   0                                                                     81872217                                                      
51.20 21000734000358O003          38112128                      0002281872230         003276006184854    000000011UNI1000000011 00000000000        000000000000000                                                       00000000000000000000000000000          
51.27 21000734000358O003          38112128                      000222222ARTBCDCLLICLREFBPAV LAM ARTENS MEDIO MAHDIA 001    0                                                                     81872230                                                      
51.20 21000734000358O003          38112128                      0002381872206         008425432081236    000000006UNI1000000006 00000000000        000000000000000                                                       00000000000000000000000000000          
51.27 21000734000358O003          38112128                      000232222ARTBCDCLLICLREFBPAV LAM ARTENS INTENSO FARO 031    0                                                                     81872206                                                      
51.20 21000734000358O003          38112128                      0002781872224         008425432081342    000000016UNI1000000016 00000000000        000000000000000                                                       00000000000000000000000000000          
51.27 21000734000358O003          38112128                      000272222ARTBCDCLLICLREFBPAV LAM ARTENS INTENSO PLUS JAEN 040                                                                     81872224                                                      
51.30 21000734000358O003          38112128                      00000                 00000000000 00000000000                       0000000005600003585521294410000000055212944000           0000000000000000000P     000000000                  00000000   0000
51.31 21000734000358O003          38112128                      00000                 000000                         00000470110                                      0024852    0000000000000000                                0000000                        
51.20 21000734000358O003          38112128                      0001217591252         003276005130708    000000002UNI1000000002 00000000000        000000000000000                                                       00000000000000000000000000000          
51.27 21000734000358O003          38112128                      000122222ARTBCDCLLICLREFBPAV VIN LM AD ARTENS FRT DAINTREE 00                                                                     17591252                                                      
51.20 21000734000358O003          38112128                      0002181872217         008425432081182    000000029UNI1000000029 00000000000        000000000000000                                                       00000000000000000000000000000          
51.27 21000734000358O003          38112128                      000212222ARTBCDCLLICLREFBPAV LAM ARTENS INTENSO AVILA 040   0                                                                     81872217                                                      
51.30 21000734000358O003          38112128                      00000                 00000000000 00000000000                       0000000005600003585521310170000000055213101000           0000000000000000000P     000000000                  00000000   0000
51.31 21000734000358O003          38112128                      00000                 000000                         00000149970                                      0218800    0000000000000000                                0000000                        
51.20 21000734000358O003          38112128                      0000710901394         008433770018685    000000010UNI1000000010 00000000000        000000000000000                                                       00000000000000000000000000000          
51.27 21000734000358O003          38112128                      000072222ARTBCDCLLICLREFBPAINEL MELAMINA BRANCO LISO 16MM 800                                                                     10901394                                                      
51.20 21000734000358O003          38112128                      0000810901471         008436563910067    000000030UNI1000000030 00000000000        000000000000000                                                       00000000000000000000000000000          
51.27 21000734000358O003          38112128                      000082222ARTBCDCLLICLREFBPAINEL CONTRAPLACADO 5MM 800X400   0                                                                     10901471                                                      
51.20 21000734000358O003          38112128                      0000910901485         008436563910043    000000020UNI1000000020 00000000000        000000000000000                                                       00000000000000000000000000000          
51.27 21000734000358O003          38112128                      000092222ARTBCDCLLICLREFBPAINEL CONTRAPLACADO 10MM 800X400  0                                                                     10901485                                                      
51.20 21000734000358O003          38112128                      0001011034282         008436563910081    000000012UNI1000000012 00000000000        000000000000000                                                       00000000000000000000000000000          
51.27 21000734000358O003          38112128                      000102222ARTBCDCLLICLREFBPAINEL CONTRAPLACADO 15MM 1200X600 0                                                                     11034282                                                      
51.20 21000734000358O003          38112128                      0002511059342         008436563910036    000000030UNI1000000030 00000000000        000000000000000                                                       00000000000000000000000000000          
51.27 21000734000358O003          38112128                      000252222ARTBCDCLLICLREFBPAINEL CONTRAPLACADO 5MM 600X300   0                                                                     11059342                                                      
51.30 21000734000358O003          38112128                      00000                 00000000000 00000000000                       0000000005600003585521312390000000055213123000           0000000000000000000P     000000000                  00000000   0000
51.31 21000734000358O003          38112128                      00000                 000000                         00000129060                                      0955714    0000000000000000                                0000000                        
51.20 21000734000358O003          38112128                      0000116369115         003532830026112    000000001UNI1000000001 00000000000        000000000000000                                                       00000000000000000000000000000          
51.27 21000734000358O003          38112128                      000012222ARTBCDCLLICLREFBPACK PTAS CORRER BR 2X90X250CM 'M' 0                                                                     16369115                                                      
51.20 21000734000358O003          38112128                      0000213834352         008424019291129    000000004UNI1000000004 00000000000        000000000000000                                                       00000000000000000000000000000          
51.27 21000734000358O003          38112128                      000022222ARTBCDCLLICLREFBPORTA LISA MOGNO S/VERNIZ 75X200CM 0                                                                     13834352                                                      
51.20 21000734000358O003          38112128                      0000481908693         005411090011336    000000010UNI1000000010 00000000000        000000000000000                                                       00000000000000000000000000000          
51.27 21000734000358O003          38112128                      000042222ARTBCDCLLICLREFBPERFIL START-END PVC BRANCO 2,6M   0                                                                     81908693                                                      
51.20 21000734000358O003          38112128                      0001781875160         003276000336853    000000019UNI1000000019 00000000000        000000000000000                                                       00000000000000000000000000000          
51.27 21000734000358O003          38112128                      000172222ARTBCDCLLICLREFBPINCAS ADAPT GUIA PTA CORRER VIDRO 0                                                                     81875160                                                      
51.20 21000734000358O003          38112128                      0001819128032         003276005879911    000000010UNI1000000010 00000000000        000000000000000                                                       00000000000000000000000000000          
51.27 21000734000358O003          38112128                      000182222ARTBCDCLLICLREFBGUIA ACO PTA CORRER 180CM 30KG     0                                                                     19128032                                                      
51.30 21000734000358O003          38112128                      00000                 00000000000 00000000000                       0000000005600003585521320900000000055213209000           0000000000000000000P     000000000                  00000000   0000
51.31 21000734000358O003          38112128                      00000                 000000                         00000378800                                      0291724    0000000000000000                                0000000                        
51.20 21000734000358O003          38112128                      0000500138586         008433770019118    000000002UNI1000000002 00000000000        000000000000000                                                       00000000000000000000000000000          
51.27 21000734000358O003          38112128                      000052222ARTBCDCLLICLREFBPLACA MDF 19MM 2440X1220           0                                                                     138586                                                        
51.20 21000734000358O003          38112128                      0000600438550         008425432014029    000000005UNI1000000005 00000000000        000000000000000                                                       00000000000000000000000000000          
51.27 21000734000358O003          38112128                      000062222ARTBCDCLLICLREFBTRASEIRA MELAM BR LISO 3.2MM 2440X10                                                                     438550                                                        
51.20 21000734000358O003          38112128                      0001112049786         008425432036274    000000002UNI1000000002 00000000000        000000000000000                                                       00000000000000000000000000000          
51.27 21000734000358O003          38112128                      000112222ARTBCDCLLICLREFBPLACA MELAMINA CARV CLAS 16MM 2440X0                                                                     12049786                                                      
51.20 21000734000358O003          38112128                      0001319375776         008425432052960    000000005UNI1000000005 00000000000        000000000000000                                                       00000000000000000000000000000          
51.27 21000734000358O003          38112128                      000132222ARTBCDCLLICLREFBPLACA AGLOMERADO HIDROF 16MM 2440X10                                                                     19375776                                                      
51.20 21000734000358O003          38112128                      0001981890679         008425432083254    000000005UNI1000000005 00000000000        000000000000000                                                       00000000000000000000000000000          
51.27 21000734000358O003          38112128                      000192222ARTBCDCLLICLREFBTRASEIRA MEL CARV SPACEO 3MM 2440X10                                                                     81890679                                                      
51.30 21000734000358O003          38112128                      00000                 00000000000 00000000000                       0000000005600003585521322500000000055213225000           0000000000000000000P     000000000                  00000000   0000
51.31 21000734000358O003          38112128                      00000                 000000                         00000126400                                      0014965    0000000000000000                                0000000                        
51.20 21000734000358O003          38112128                      0001414037681         003276000081463    000000004UNI1000000004 00000000000        000000000000000                                                       00000000000000000000000000000          
51.27 21000734000358O003          38112128                      000142222ARTBCDCLLICLREFBPORTA CORRER VIDRO MIAMI 73X203.5CM0                                                                     14037681                                                      
51.30 21000734000358O003          38112128                      00000                 00000000000 00000000000                       0000000005600003580801835330000000055213432000           0000000000000000000P     000000000                  00000000   0000
51.31 21000734000358O003          38112128                      00000                 000000                         00000545600                                      0015720    0000000000000000                                0000000                        
51.20 21000734000358O003          38112128                      0002681872154         003276006184809    000000040UNI1000000040 00000000000        000000000000000                                                       00000000000000000000000000000          
51.27 21000734000358O003          38112128                      000262222ARTBCDCLLICLREFBPAV LAM ARTENS FORTE COLIGNY 012   0                                                                     81872154                                                      
51.30 21000734000358O003          38112128                      00000                 00000000000 00000000000                       0000000005600003580801836490000000055213445000           0000000000000000000P     000000000                  00000000   0000
51.31 21000734000358O003          38112128                      00000                 000000                         00000720000                                      0006144    0000000000000000                                0000000                        
51.20 21000734000358O003          38112128                      0001619228692         003276000215387    000000060UNI1000000060 00000000000        000000000000000                                                       00000000000000000000000000000          
51.27 21000734000358O003          38112128                      000162222ARTBCDCLLICLREFBPAV VIN LM CL ARTENS MED TIDORE 0310                                                                     19228692                                                      
51.30 21000734000358O003          38112128                      00000                 00000000000 00000000000                       0000000005600003580801838300000000055213480000           0000000000000000000P     000000000                  00000000   0000
51.31 21000734000358O003          38112128                      00000                 000000                         00000280000                                      0017015    0000000000000000                                0000000                        
51.20 21000734000358O003          38112128                      0001514960421         003276000081470    000000008UNI1000000008 00000000000        000000000000000                                                       00000000000000000000000000000          
51.27 21000734000358O003          38112128                      000152222ARTBCDCLLICLREFBPTA CORRER VIDRO ORLANDO 8MM 83X2030                                                                     14960421                                                      
51.99 21000734000358O003          38112128                      00260000011200010000037050000260000441210300004440180000                                                                                                                                        
51.00 21000736000358O003          38112130                      LS    1202101110000O003          12101002320210106003000000000007799320210107083843003           15                                L207059      787192             1L207059          2100002087 
51.01 21000736000358O003          38112130                           3                                                 00000000                                   00000000                                                                        ULMALVALOP    
51.05 21000736000358O003          38112130                      CDTICIRLDATCDATP                                                                      20210105                                                                                                  
51.05 21000736000358O003          38112130                      PRIO            NO                                                                                                                                                                              
51.30 21000736000358O003          38112130                      00000                 00000000000 00000000000                       0000000005600003585521305910000000055213059000           0000000000000000000P     000000000                  00000000   0000
51.31 21000736000358O003          38112130                      00000                 000000                         00000176250                                      0114036    0000000000000000                                0000000                        
51.20 21000736000358O003          38112130                      0000119709956         003276000237679    000000025UNI1000000025 00000000000        000000000000000                                                       00000000000000000000000000000          
51.27 21000736000358O003          38112130                      000012222ARTBCDCLLICLREFBASPIRADOR DEXTER POWER 20L         0                                                                     19709956                                                      
51.20 21000736000358O003          38112130                      0000218835971         003276005938823    000000005UNI1000000005 00000000000        000000000000000                                                       00000000000000000000000000000          
51.27 21000736000358O003          38112130                      000022222ARTBCDCLLICLREFBMALA ALUM DEXTER 32X23X12CM        0                                                                     18835971                                                      
51.99 21000736000358O003          38112130                      00020000000800001000002600000020000017625000000176250000                                                                                                                                        
51.00 21000739000358O003          38112133                      LS    1202101110000O003          12101002320210106003000000000007799320210107083843003           15                                L207059      787192             1L207059          2100002088 
51.01 21000739000358O003          38112133                           3                                                 00000000                                   00000000                                                                        ULMALVALOP    
51.05 21000739000358O003          38112133                      CDTICIRLDATCDATP                                                                      20210105                                                                                                  
51.05 21000739000358O003          38112133                      PRIO            NO                                                                                                                                                                              
51.30 21000739000358O003          38112133                      00000                 00000000000 00000000000                       0000000005600003585521294580000000055212945000           0000000000000000000P     000000000                  00000000   0000
51.31 21000739000358O003          38112133                      00000                 000000                         00000000848                                      0077832    0000000000000000                                0000000                        
51.20 21000739000358O003          38112133                      0000119283782         003276000239819    000000004UNI1000000004 00000000000        000000000000000                                                       00000000000000000000000000000          
51.27 21000739000358O003          38112133                      000012222ARTBCDCLLICLREFBBOQUILHA 3 EN 1 EPW-3 STERWINS     0                                                                     19283782                                                      
51.99 21000739000358O003          38112133                      00010000000400001000000008000010000000083300000000848000                                                                                                                                        
51.00 21001365000358O003          38112769                      CC1   1202101120000O003          12101002620210107003000000000007799320210107083843003           15                                L207059      787192             1L207059          2100002089 
51.01 21001365000358O003          38112769                           3                                                 00000000                                   00000000                                                                        ULMALVALOP    
51.05 21001365000358O003          38112769                      PRIO            NO                                                                                                                                                                              
51.05 21001365000358O003          38112769                      CDTICIRLDATCDATP                                                                      20210107                                                                                                  
51.30 21001365000358O003          38112769                      00000                 00000000000 00000000000                       0000000005600003585521357320000000055213573000           0000000000000000000P     000000000                  00000000   0000
51.31 21001365000358O003          38112769                      00000                 000000                         00000160000                                      0018900    0000000000000000                                0000000                        
51.20 21001365000358O003          38112769                      0000781872175         003276006185127    000000010UNI1000000010 00000000000        000000000000000                                                       00000000000000000000000000000          
51.27 21001365000358O003          38112769                      000072222ARTBCDCLLICLREFBPAV LAM ARTENS FORTE MARGATE 005   523388                             523388 FRANCISCO                   81872175                                                      
51.99 21001365000358O003          38112769                      00010000000400001000001000000010000016000000000160000000                                                                                                                                        
51.00 21001366000358O003          38112769                      CC1   1202101120000O003          12101002620210107003000000000007799320210107083843003           15                                L207059      787192             1L207059          2100002090 
51.01 21001366000358O003          38112769                           3                                                 00000000                                   00000000                                                                        ULMALVALOP    
51.05 21001366000358O003          38112769                      CDTICIRLDATCDATP                                                                      20210107                                                                                                  
51.05 21001366000358O003          38112769                      PRIO            NO                                                                                                                                                                              
51.30 21001366000358O003          38112769                      00000                 00000000000 00000000000                       0000000005600003585521365310000000055213653000           0000000000000000000P     000000000                  00000000   0000
51.31 21001366000358O003          38112769                      00000                 000000                         00000089400                                      0178011    0000000000000000                                0000000                        
51.20 21001366000358O003          38112769                      0000219474546         008425432067452    000000001UNI1000000001 00000000000        000000000000000                                                       00000000000000000000000000000          
51.27 21001366000358O003          38112769                      000022222ARTBCDCLLICLREFBGAVETEIRO 2 GAV INT BRANCO 80X59 CM523427                             523427 PAPANÇA                     19474546                                                      
51.20 21001366000358O003          38112769                      0000319474875         008425432067285    000000001UNI1000000001 00000000000        000000000000000                                                       00000000000000000000000000000          
51.27 21001366000358O003          38112769                      000032222ARTBCDCLLICLREFBMODULO BRANCO 80X236X59 CM         523427                             523427 PAPANÇA                     19474875                                                      
51.20 21001366000358O003          38112769                      0000519475183         008425432067346    000000001UNI1000000001 00000000000        000000000000000                                                       00000000000000000000000000000          
51.27 21001366000358O003          38112769                      000052222ARTBCDCLLICLREFBPACK 2 PRATELEIRAS BRANCO 80X59 CM 523427                             523427 PAPANÇA                     19475183                                                      
51.30 21001366000358O003          38112769                      00000                 00000000000 00000000000                       0000000005600003585521366300000000055213663000           0000000000000000000P     000000000                  00000000   0000
51.31 21001366000358O003          38112769                      00000                 000000                         00000022400                                      0020468    0000000000000000                                0000000                        
51.20 21001366000358O003          38112769                      0000116318792         008425432025391    000000002UNI1000000002 00000000000        000000000000000                                                       00000000000000000000000000000          
51.27 21001366000358O003          38112769                      000012222ARTBCDCLLICLREFBPTA BATER MANET BR 40X228CM        523427                             523427 PAPANÇA                     16318792                                                      
51.99 21001366000358O003          38112769                      00040000001600002000000500000040000011180000000111800000                                                                                                                                        
51.00 21001369000358O003          38112771                      CC1   1202101120000O003          12101002620210107003000000000007799320210107083843003           15                                L207059      787192             1L207059          2100002091 
51.01 21001369000358O003          38112771                           3                                                 00000000                                   00000000                                                                        ULMALVALOP    
51.05 21001369000358O003          38112771                      CDTICIRLDATCDATP                                                                      20210107                                                                                                  
51.05 21001369000358O003          38112771                      PRIO            NO                                                                                                                                                                              
51.30 21001369000358O003          38112771                      00000                 00000000000 00000000000                       0000000005600003585521363020000000055213630000           0000000000000000000P     000000000                  00000000   0000
51.31 21001369000358O003          38112771                      00000                 000000                         00000012500                                      0062197    0000000000000000                                0000000                        
51.20 21001369000358O003          38112771                      0000119283502         003276000228066    000000002UNI1000000002 00000000000        000000000000000                                                       00000000000000000000000000000          
51.27 21001369000358O003          38112771                      000012222ARTBCDCLLICLREFBTUPIA DEXTER IV 1300W              523430                             523430 SILVA                       19283502                                                      
51.99 21001369000358O003          38112771                      00010000000400001000000100000010000001250000000012500000                                                                                                                                        
51.00 21001377000358O003          38112774                      CC1   1202101120000O003          12101002620210107003000000000007799320210107083843003           15                                L207059      787192             1L207059          2100002092 
51.01 21001377000358O003          38112774                           3                                                 00000000                                   00000000                                                                        ULMALVALOP    
51.05 21001377000358O003          38112774                      CDTICIRLDATCDATP                                                                      20210107                                                                                                  
51.05 21001377000358O003          38112774                      PRIO            NO                                                                                                                                                                              
51.30 21001377000358O003          38112774                      00000                 00000000000 00000000000                       0000000005600003585521357490000000055213574000           0000000000000000000P     000000000                  00000000   0000
51.31 21001377000358O003          38112774                      00000                 000000                         00000003364                                      0082960    0000000000000000                                0000000                        
51.20 21001377000358O003          38112774                      0000114576016         008424019520489    000000001UNI1000000001 00000000000        000000000000000                                                       00000000000000000000000000000          
51.27 21001377000358O003          38112774                      000012222ARTBCDCLLICLREFBTOLDO PERGULA MARBELHA 3X4M        523251                             523251 MURÇA                       14576016                                                      
51.99 21001377000358O003          38112774                      00010000000400001000000020000010000000336400000003364000                                                                                                                                        
99.00 FGE50LMALV    M51           20210107090243239497400000252                                                                                                                                                                                                 
