00.00 FGE50LMALV    EXTRACT_51    20210107092454239499605.00LMPT0000M51       FGX10     Expedi\ão  N¢: 00078011                                                         358010003           00000000                                                            
51.00 20081517000358O009          38109434                      LS    1202012290000O009          12012024520201224003000000000007801120210107092407100           PREFATURADO                       PREFATURAD   PREFATUR           1PREFATURADO      2100002095 
51.01 20081517000358O009          38109434                           3                                                 00000000                                   00000000                                                                        ULMALVDBAT    
51.05 20081517000358O009          38109434                      CDTICIRLDATCDATP                                                                      20201223                                                                                                  
51.05 20081517000358O009          38109434                      PRIO            NO                                                                                                                                                                              
51.30 20081517000358O009          38109434                      00000                 00000000000 00000000000                       0000000005600003585520605600000000055206056000           0000000000000000000P     000000000                  00000000   0000
51.31 20081517000358O009          38109434                      00000                 000000                         00000074000                                      0119619    0000000000000000                                0000000                        
51.20 20081517000358O009          38109434                      0000181989149         003276000463955    000000001UNI1000000001 00000000000        000000000000000                                                       00000000000000000000000000000          
51.27 20081517000358O009          38109434                      000012222ARTBCDCLLICLREFBB. DCH RESINA EASY RECT 160X70 BR  0                                                                     81989149                                                      
51.20 20081517000358O009          38109434                      0000281975743         003276000448426    000000001UNI1000000001 00000000000        000000000000000                                                       00000000000000000000000000000          
51.27 20081517000358O009          38109434                      000022222ARTBCDCLLICLREFBB.DCH NEREA/PRIMO LOUCA QUAD 70X70 0                                                                     81975743                                                      
51.99 20081517000358O009          38109434                      00020000000800001000000200000020000007400000000074000000                                                                                                                                        
99.00 FGE50LMALV    M51           20210107092454239499600000013                                                                                                                                                                                                 
