00.00 FGE50LMALV    EXTRACT_80    20210105154522239170505.00LMPT0000M80       FGX10     Movimentos diversos actividade                                                  358010003           00000000                                                                                                                                                                                                                                                                                                                                                                                                                    
80.00 2021010515432120210105RG280-   I  850207                        000000016358              81968156         00                 000000001ARRW000000000                    0000000005600003581106213870000000000000000202688        100011415000ULMALVAPAHUVC                                                                                                                                                                                                                                                                                                                                                        
99.00 FGE50LMALV    M80           20210105154523239170500000001                                                                                                                                                                                                                                                                                                                                                                                                                                                                                                                                                         
