00.00 FGE50LMALV    EXTRACT_41    20210215085701244095305.00LMPT0000M41       FGX10     Recepcao N: 00013168-000                                                        358010003           00000000                                                                                                                                                                                                                                                                                                                                                                                                                    
41.00 00013168000351153                                  ARRSTD1358202350        1             202102110800202102110800202102150854192                    10                 03                                       00000000   18425432000008 L180404                                                                                                                                                                                                                                                                                                                                                                 
41.20 00013168000351153                        00001358              00436271         00000000033UNI                 0000000   000000033000000000000000000   000000000   0000000000000000010000038940020210212                    0000000000               00001                                                                                                                                                                                                                                                                                                                                                        
41.30 00013168000351153                        00001000000033000000001                    000000000                    2021021200000000560000358110763698   0000000000000000000000000000ARRA030004020358              00436271         0000000000003894000389400                                                                                                                                                                                                                                                                                                                                                        
41.99 00013168000351153                        00010000100000330000001                                                                                                                                                                                                                                                                                                                                                                                                                                                                                                                                                  
99.00 FGE50LMALV    M41           20210215085702244095300000004                                                                                                                                                                                                                                                                                                                                                                                                                                                                                                                                                         
