00.00 FGE50LMALV    EXTRACT_41    20210212155446243960205.00LMPT0000M41       FGX10     Recepcao N: 00013069-000                                                        358010003           00000000                                                                                                                                                                                                                                                                                                                                                                                                                    
41.00 00013069000311538                                  ARRSTD1358204706        1             202102120801202102120800202102121554192                    10                 03                                       00000000   18099999698918 1043                                                                                                                                                                                                                                                                                                                                                                    
41.20 00013069000311538                        00053358              82149254         00000000264UNI                 0000000   000000252000000000000000000   000000000   0000000000000000010000020739620210212                    0000000000               00001                                                                                                                                                                                                                                                                                                                                                        
41.30 00013069000311538                        00053000000252000000001                    000000000                    2021021200000000560000358110760314   0000000000000000000000000000ARRA100007800358              82149254         0000000000002073960207396                                                                                                                                                                                                                                                                                                                                                        
41.20 00013069000311538                        00049358              82149258         00000000002UNI                 0000000   000000000000000000000000000   000000000   0000000000000000010000000000000000000                    0000000000               00001                                                                                                                                                                                                                                                                                                                                                        
41.20 00013069000311538                        00048358              82149259         00000000120UNI                 0000000   000000111000000000000000000   000000000   0000000000000000010000027072920210212                    0000000000               00001                                                                                                                                                                                                                                                                                                                                                        
41.30 00013069000311538                        00048000000111000000001                    000000000                    2021021200000000560000358110761069   0000000000000000000000000000ARRA100007300358              82149259         0000000000002707290270729                                                                                                                                                                                                                                                                                                                                                        
41.20 00013069000311538                        00045358              82149262         00000000002UNI                 0000000   000000000000000000000000000   000000000   0000000000000000010000000000000000000                    0000000000               00001                                                                                                                                                                                                                                                                                                                                                        
41.20 00013069000311538                        00044358              82149263         00000000076UNI                 0000000   000000076000000000000000000   000000000   0000000000000000010000024988820210212                    0000000000               00001                                                                                                                                                                                                                                                                                                                                                        
41.30 00013069000311538                        00044000000076000000001                    000000000                    2021021200000000560000358110760413   0000000000000000000000000000ARRA100004420358              82149263         0000000000002498880249888                                                                                                                                                                                                                                                                                                                                                        
41.20 00013069000311538                        00043358              82149264         00000000001UNI                 0000000   000000000000000000000000000   000000000   0000000000000000010000000000000000000                    0000000000               00001                                                                                                                                                                                                                                                                                                                                                        
41.20 00013069000311538                        00042358              82149265         00000000003UNI                 0000000   000000000000000000000000000   000000000   0000000000000000010000000000000000000                    0000000000               00001                                                                                                                                                                                                                                                                                                                                                        
41.20 00013069000311538                        00041358              82149266         00000000152UNI                 0000000   000000000000000000000000000   000000000   0000000000000000010000000000000000000                    0000000000               00001                                                                                                                                                                                                                                                                                                                                                        
41.20 00013069000311538                        00040358              82149267         00000000152UNI                 0000000   000000148000000000000000000   000000000   0000000000000000010000055189220210212                    0000000000               00001                                                                                                                                                                                                                                                                                                                                                        
41.30 00013069000311538                        00040000000076000000001                    000000000                    2021021200000000560000358110761038   0000000000000000000000000000ARRA100006800358              82149267         0000000000002834040283404                                                                                                                                                                                                                                                                                                                                                        
41.30 00013069000311538                        00040000000072000000001                    000000000                    2021021200000000560000358110761175   0000000000000000000000000000ARRA100001920358              82149267         0000000000002684880268488                                                                                                                                                                                                                                                                                                                                                        
41.20 00013069000311538                        00038358              82149269         00000000076UNI                 0000000   000000075000000000000000000   000000000   0000000000000000010000034867520210212                    0000000000               00001                                                                                                                                                                                                                                                                                                                                                        
41.30 00013069000311538                        00038000000075000000001                    000000000                    2021021200000000560000358110760291   0000000000000000000000000000ARRA100007320358              82149269         0000000000003486750348675                                                                                                                                                                                                                                                                                                                                                        
41.20 00013069000311538                        00037358              82149270         00000000003UNI                 0000000   000000000000000000000000000   000000000   0000000000000000010000000000000000000                    0000000000               00001                                                                                                                                                                                                                                                                                                                                                        
41.20 00013069000311538                        00036358              82149271         00000000001UNI                 0000000   000000000000000000000000000   000000000   0000000000000000010000000000000000000                    0000000000               00001                                                                                                                                                                                                                                                                                                                                                        
41.20 00013069000311538                        00035358              82149272         00000000002UNI                 0000000   000000000000000000000000000   000000000   0000000000000000010000000000000000000                    0000000000               00001                                                                                                                                                                                                                                                                                                                                                        
41.20 00013069000311538                        00034358              82149273         00000000003UNI                 0000000   000000000000000000000000000   000000000   0000000000000000010000000000000000000                    0000000000               00001                                                                                                                                                                                                                                                                                                                                                        
41.20 00013069000311538                        00032358              82149275         00000000076UNI                 0000000   000000046000000000000000000   000000000   0000000000000000010000034205620210212                    0000000000               00001                                                                                                                                                                                                                                                                                                                                                        
41.30 00013069000311538                        00032000000046000000001                    000000000                    2021021200000000560000358110760307   0000000000000000000000000000ARRA100007720358              82149275         0000000000003420560342056                                                                                                                                                                                                                                                                                                                                                        
41.20 00013069000311538                        00031358              82149276         00000000076UNI                 0000000   000000076000000000000000000   000000000   0000000000000000010000032801620210212                    0000000000               00001                                                                                                                                                                                                                                                                                                                                                        
41.30 00013069000311538                        00031000000076000000001                    000000000                    2021021200000000560000358110760390   0000000000000000000000000000ARRA100003320358              82149276         0000000000003280160328016                                                                                                                                                                                                                                                                                                                                                        
41.20 00013069000311538                        00029358              82149278         00000000038UNI                 0000000   000000038000000000000000000   000000000   0000000000000000010000024654420210212                    0000000000               00001                                                                                                                                                                                                                                                                                                                                                        
41.30 00013069000311538                        00029000000038000000001                    000000000                    2021021200000000560000358110761045   0000000000000000000000000000ARRA100002920358              82149278         0000000000002465440246544                                                                                                                                                                                                                                                                                                                                                        
41.20 00013069000311538                        00026358              82149281         00000000005UNI                 0000000   000000000000000000000000000   000000000   0000000000000000010000000000000000000                    0000000000               00001                                                                                                                                                                                                                                                                                                                                                        
41.20 00013069000311538                        00025358              82149282         00000000038UNI                 0000000   000000026000000000000000000   000000000   0000000000000000010000034736020210212                    0000000000               00001                                                                                                                                                                                                                                                                                                                                                        
41.30 00013069000311538                        00025000000026000000001                    000000000                    2021021200000000560000358110761052   0000000000000000000000000000ARRA100004310358              82149282         0000000000003473600347360                                                                                                                                                                                                                                                                                                                                                        
41.20 00013069000311538                        00023358              82149284         00000000002UNI                 0000000   000000000000000000000000000   000000000   0000000000000000010000000000000000000                    0000000000               00001                                                                                                                                                                                                                                                                                                                                                        
41.20 00013069000311538                        00022358              82149285         00000000076UNI                 0000000   000000068000000000000000000   000000000   0000000000000000010000033639620210212                    0000000000               00001                                                                                                                                                                                                                                                                                                                                                        
41.30 00013069000311538                        00022000000068000000001                    000000000                    2021021200000000560000358110760277   0000000000000000000000000000ARRA100005320358              82149285         0000000000003363960336396                                                                                                                                                                                                                                                                                                                                                        
41.20 00013069000311538                        00016358              82149291         00000000040UNI                 0000000   000000040000000000000000000   000000000   0000000000000000010000013152020210212                    0000000000               00001                                                                                                                                                                                                                                                                                                                                                        
41.30 00013069000311538                        00016000000010000000001                    000000000                    2021021200000000560000358110760994   0000000000000000000000000000ARRA100001200358              82149291         0000000000000328800032880                                                                                                                                                                                                                                                                                                                                                        
41.30 00013069000311538                        00016000000010000000001                    000000000                    2021021200000000560000358110761007   0000000000000000000000000000ARRA100001200358              82149291         0000000000000328800032880                                                                                                                                                                                                                                                                                                                                                        
41.30 00013069000311538                        00016000000010000000001                    000000000                    2021021200000000560000358110761014   0000000000000000000000000000ARRA100001200358              82149291         0000000000000328800032880                                                                                                                                                                                                                                                                                                                                                        
41.30 00013069000311538                        00016000000010000000001                    000000000                    2021021200000000560000358110761021   0000000000000000000000000000ARRA100001200358              82149291         0000000000000328800032880                                                                                                                                                                                                                                                                                                                                                        
41.20 00013069000311538                        00014358              82149293         00000000228UNI                 0000000   000000226000000000000000000   000000000   0000000000000000010000194789420210212                    0000000000               00001                                                                                                                                                                                                                                                                                                                                                        
41.30 00013069000311538                        00014000000038000000001                    000000000                    2021021200000000560000358110760321   0000000000000000000000000000ARRA100005520358              82149293         0000000000003275220327522                                                                                                                                                                                                                                                                                                                                                        
41.30 00013069000311538                        00014000000036000000001                    000000000                    2021021200000000560000358110760345   0000000000000000000000000000ARRA100004520358              82149293         0000000000003102840310284                                                                                                                                                                                                                                                                                                                                                        
41.30 00013069000311538                        00014000000038000000001                    000000000                    2021021200000000560000358110760352   0000000000000000000000000000ARRA100005020358              82149293         0000000000003275220327522                                                                                                                                                                                                                                                                                                                                                        
41.30 00013069000311538                        00014000000038000000001                    000000000                    2021021200000000560000358110760369   0000000000000000000000000000ARRA100005120358              82149293         0000000000003275220327522                                                                                                                                                                                                                                                                                                                                                        
41.30 00013069000311538                        00014000000038000000001                    000000000                    2021021200000000560000358110760376   0000000000000000000000000000ARRA100005920358              82149293         0000000000003275220327522                                                                                                                                                                                                                                                                                                                                                        
41.30 00013069000311538                        00014000000038000000001                    000000000                    2021021200000000560000358110761076   0000000000000000000000000000ARRA100005420358              82149293         0000000000003275220327522                                                                                                                                                                                                                                                                                                                                                        
41.20 00013069000311538                        00011358              82149296         00000000076UNI                 0000000   000000063000000000000000000   000000000   0000000000000000010000088830020210212                    0000000000               00001                                                                                                                                                                                                                                                                                                                                                        
41.30 00013069000311538                        00011000000063000000001                    000000000                    2021021200000000560000358110760284   0000000000000000000000000000ARRA100004720358              82149296         0000000000004599000888300                                                                                                                                                                                                                                                                                                                                                        
41.20 00013069000311538                        00010358              82149297         00000000168UNI                 0000000   000000168000000000000000000   000000000   0000000000000000010000031281620210212                    0000000000               00001                                                                                                                                                                                                                                                                                                                                                        
41.30 00013069000311538                        00010000000168000000001                    000000000                    2021021200000000560000358110761083   0000000000000000000000000000ARRA100003220358              82149297         0000000000003128160312816                                                                                                                                                                                                                                                                                                                                                        
41.20 00013069000311538                        00009358              82149298         00000000073UNI                 0000000   000000072000000000000000000   000000000   0000000000000000010000033472820210212                    0000000000               00001                                                                                                                                                                                                                                                                                                                                                        
41.30 00013069000311538                        00009000000072000000001                    000000000                    2021021200000000560000358110760406   0000000000000000000000000000ARRA100003520358              82149298         0000000000003347280334728                                                                                                                                                                                                                                                                                                                                                        
41.20 00013069000311538                        00008358              82149299         00000000001UNI                 0000000   000000000000000000000000000   000000000   0000000000000000010000000000000000000                    0000000000               00001                                                                                                                                                                                                                                                                                                                                                        
41.20 00013069000311538                        00007358              82149300         00000000001UNI                 0000000   000000000000000000000000000   000000000   0000000000000000010000000000000000000                    0000000000               00001                                                                                                                                                                                                                                                                                                                                                        
41.20 00013069000311538                        00006358              82149301         00000000076UNI                 0000000   000000066000000000000000000   000000000   0000000000000000010000030551420210212                    0000000000               00001                                                                                                                                                                                                                                                                                                                                                        
41.30 00013069000311538                        00006000000066000000001                    000000000                    2021021200000000560000358110760338   0000000000000000000000000000ARRA100004700358              82149301         0000000000003055140305514                                                                                                                                                                                                                                                                                                                                                        
41.20 00013069000311538                        00004358              82149304         00000000304UNI                 0000000   000000304000000000000000000   000000000   0000000000000000010000066880020210212                    0000000000               00001                                                                                                                                                                                                                                                                                                                                                        
41.30 00013069000311538                        00004000000152000000001                    000000000                    2021021200000000560000358110760383   0000000000000000000000000000ARRA100005500358              82149304         0000000000003344000334400                                                                                                                                                                                                                                                                                                                                                        
41.30 00013069000311538                        00004000000152000000001                    000000000                    2021021200000000560000358110760420   0000000000000000000000000000ARRA100003720358              82149304         0000000000003344000334400                                                                                                                                                                                                                                                                                                                                                        
41.20 00013069000311538                        00002358              82307575         00000000002UNI                 0000000   000000000000000000000000000   000000000   0000000000000000010000000000000000000                    0000000000               00001                                                                                                                                                                                                                                                                                                                                                        
41.99 00013069000311538                        00310002700018550000017                                                                                                                                                                                                                                                                                                                                                                                                                                                                                                                                                  
99.00 FGE50LMALV    M41           20210212155446243960200000060                                                                                                                                                                                                                                                                                                                                                                                                                                                                                                                                                         
