00.00 FGE50LMALV    EXTRACT_41    20210215085350244095205.00LMPT0000M41       FGX10     Recepcao N: 00013169-000                                                        358010003           00000000                                                                                                                                                                                                                                                                                                                                                                                                                    
41.00 00013169000351155                                  ARRSTD1358203376        1             202102110000202102110800202102150853192                    10                 03                                       00000000   18425432000008 LE547                                                                                                                                                                                                                                                                                                                                                                   
41.20 00013169000351155                        00001358              12197073         00000000018UNI                 0000000   000000018000000000000000000   000000000   0000000000000000010000027936020210212                    0000000000               00001                                                                                                                                                                                                                                                                                                                                                        
41.30 00013169000351155                        00001000000018000000001                    000000000                    2021021200000000560000358110763681   0000000000000000000000000000ARRA030003820358              12197073         0000000000002793600279360                                                                                                                                                                                                                                                                                                                                                        
41.99 00013169000351155                        00010000100000180000001                                                                                                                                                                                                                                                                                                                                                                                                                                                                                                                                                  
99.00 FGE50LMALV    M41           20210215085350244095200000004                                                                                                                                                                                                                                                                                                                                                                                                                                                                                                                                                         
