00.00 FGE50LMALV    EXTRACT_51    20210106230828239463905.00LMPT0000M51       FGX10     Expedi\ão  N¢: 00077967                                                         358010003           00000000                                                            
51.00 20083013000358O065          38110842                      LS    1202101040000O065          12012027420201230003000000000007796720210106220335006           XX                                XX           788847             1XX               2100002064 
51.01 20083013000358O065          38110842                           3                                                 00000000                                   00000000                                                                        ULMALVTCAC    
51.05 20083013000358O065          38110842                      CDTICIRLDATCDATP                                                                      20201229                                                                                                  
51.05 20083013000358O065          38110842                      PRIO            NO                                                                                                                                                                              
51.30 20083013000358O065          38110842                      00000                 00000000000 00000000000                       0000000005600003585520910900000000055209109000           0000000000000000000P     000000000                  00000000   0000
51.31 20083013000358O065          38110842                      00000                 000000                         00000019400                                      0076986    0000000000000000                                0000000                        
51.20 20083013000358O065          38110842                      0000118817334         003276000338413    000000004UNI1000000004 00000000000        000000000000000                                                       00000000000000000000000000000          
51.27 20083013000358O065          38110842                      000012222ARTBCDCLLICLREFBTAMBORETE ACO 2DEG                 0                                                                     18817334                                                      
51.99 20083013000358O065          38110842                      00010000000400001000000100000010000001940000000018400000                                                                                                                                        
51.00 20083015000358O065          38110844                      LS    1202101040000O065          12012027420201230003000000000007796720210106220335006           XX                                XX           788847             1XX               2100002065 
51.01 20083015000358O065          38110844                           3                                                 00000000                                   00000000                                                                        ULMALVTCAC    
51.05 20083015000358O065          38110844                      CDTICIRLDATCDATP                                                                      20201229                                                                                                  
51.05 20083015000358O065          38110844                      PRIO            NO                                                                                                                                                                              
51.30 20083015000358O065          38110844                      00000                 00000000000 00000000000                       0000000005600003585520911060000000055209110000           0000000000000000000P     000000000                  00000000   0000
51.31 20083015000358O065          38110844                      00000                 000000                         00000005453                                      0246956    0000000000000000                                0000000                        
51.20 20083015000358O065          38110844                      0000100949149         003276000387428    000000006UNI1000000006 00000000000        000000000000000                                                       00000000000000000000000000000          
51.27 20083015000358O065          38110844                      000012222ARTBCDCLLICLREFBPACK6 LED GU10 6W/450LM AM 100º10KH0                                                                     949149                                                        
51.20 20083015000358O065          38110844                      0000200951142         003276007063936    000000008UNI1000000008 00000000000        000000000000000                                                       00000000000000000000000000000          
51.27 20083015000358O065          38110844                      000022222ARTBCDCLLICLREFBLED FIL E27 STD 7.5W/806LM NT 15K M0                                                                     951142                                                        
51.20 20083015000358O065          38110844                      0000300953237         003276000386391    000000004UNI1000000004 00000000000        000000000000000                                                       00000000000000000000000000000          
51.27 20083015000358O065          38110844                      000032222ARTBCDCLLICLREFBPACK3FOC ENC RED BANG 4W/690L AM CR0                                                                     953237                                                        
51.20 20083015000358O065          38110844                      0000414407960         003276200036775    000000006UNI1000000006 00000000000        000000000000000                                                       00000000000000000000000000000          
51.27 20083015000358O065          38110844                      000042222ARTBCDCLLICLREFBAPLIQUE HANKO B 1L R `M`           0                                                                     14407960                                                      
51.99 20083015000358O065          38110844                      00040000001600001000000074000040000000678000000005532000                                                                                                                                        
51.00 21000983000358O065          38112413                      LS    1202101110000O065          12101002320210106003000000000007796720210106220335006           XX                                XX           788847             1XX               2100002066 
51.01 21000983000358O065          38112413                           3                                                 00000000                                   00000000                                                                        ULMALVTCAC    
51.05 21000983000358O065          38112413                      CDTICIRLDATCDATP                                                                      20210105                                                                                                  
51.05 21000983000358O065          38112413                      PRIO            NO                                                                                                                                                                              
51.30 21000983000358O065          38112413                      00000                 00000000000 00000000000                       0000000005600003581103751670000000055213287000           0000000000000000000P     000000000                  00000000   0000
51.31 21000983000358O065          38112413                      00000                 000000                         00000252000                                      0109440    0000000000000000                                0000000                        
51.20 21000983000358O065          38112413                      0000119726112         006192600900881    000000009UNI1000000009 00000000000        000000000000000                                                       00000000000000000000000000000          
51.27 21000983000358O065          38112413                      000012222ARTBCDCLLICLREFBPACK ALHAMA:WC S/VERT+TANQUE+TAMPA 0                                                                     19726112                                                      
51.99 21000983000358O065          38112413                      00010000000400001000000900000010000025200000000252000000                                                                                                                                        
51.00 21001145000358O065          38112547                      CC1   1202101110000O065          12101001920210106003000000000007796720210106220335006           XX                                XX           788847             1XX               2100002067 
51.01 21001145000358O065          38112547                           3                                                 00000000                                   00000000                                                                        ULMALVTCAC    
51.05 21001145000358O065          38112547                      CDTICIRLDATCDATP                                                                      20210106                                                                                                  
51.05 21001145000358O065          38112547                      PRIO            NO                                                                                                                                                                              
51.30 21001145000358O065          38112547                      00000                 00000000000 00000000000                       0000000005600003585521242930000000055212429000           0000000000000000000P     000000000                  00000000   0000
51.31 21001145000358O065          38112547                      00000                 000000                         00000040000                                      0090944    0000000000000000                                0000000                        
51.20 21001145000358O065          38112547                      0000182209742         003276000692652    000000001UNI1000000001 00000000000        000000000000000                                                       00000000000000000000000000000          
51.27 21001145000358O065          38112547                      000012222ARTBCDCLLICLREFBREMIX RECT 70X100X195CM CR TP      3052                                 3052 FERNANDES                   82209742                                                      
51.99 21001145000358O065          38112547                      00010000000400001000000100000010000004000000000040000000                                                                                                                                        
99.00 FGE50LMALV    M51           20210106230828239463900000048                                                                                                                                                                                                 
