00.00 FGE50LMALV    EXTRACT_41    20210104084611238817605.00LMPT0000M41       FGX10     Recepcao N: 00012615-000                                                        358010003           00000000                                                                                                                                                                                                                                                                                                                                                                                                                    
41.00 00012615000328937                                  ADASTD1358205520        200           202012310800202012310000202101040845289                    10                 03                                       00000000   18434122000006 10VU60                                                                                                                                                                                                                                                                                                                                                                  
41.20 00012615000328937                        00002358              12042233         00000000648UNI                 0000000   000000648000000000000000000   000000000   0000000000000000010001127520020210104                    0000000000               00001                                                                                                                                                                                                                                                                                                                                                        
41.30 00012615000328937                        00002000000072000000001                    000000000                    2021010400000000560000358110630440   0000000000000000000000000000ADAI020005900358              12042233         0000000000012528001252800                                                                                                                                                                                                                                                                                                                                                        
41.30 00012615000328937                        00002000000072000000001                    000000000                    2021010400000000560000358110630549   0000000000000000000000000000ADAI020005900358              12042233         0000000000012528001252800                                                                                                                                                                                                                                                                                                                                                        
41.30 00012615000328937                        00002000000072000000001                    000000000                    2021010400000000560000358110630556   0000000000000000000000000000ADAI020005900358              12042233         0000000000012528001252800                                                                                                                                                                                                                                                                                                                                                        
41.30 00012615000328937                        00002000000072000000001                    000000000                    2021010400000000560000358110630563   0000000000000000000000000000ADAI020005900358              12042233         0000000000012528001252800                                                                                                                                                                                                                                                                                                                                                        
41.30 00012615000328937                        00002000000072000000001                    000000000                    2021010400000000560000358110630570   0000000000000000000000000000ADAI020005900358              12042233         0000000000012528001252800                                                                                                                                                                                                                                                                                                                                                        
41.30 00012615000328937                        00002000000072000000001                    000000000                    2021010400000000560000358110630587   0000000000000000000000000000ADAI020005900358              12042233         0000000000012528001252800                                                                                                                                                                                                                                                                                                                                                        
41.30 00012615000328937                        00002000000072000000001                    000000000                    2021010400000000560000358110630594   0000000000000000000000000000ADAI020005900358              12042233         0000000000012528001252800                                                                                                                                                                                                                                                                                                                                                        
41.30 00012615000328937                        00002000000072000000001                    000000000                    2021010400000000560000358110630600   0000000000000000000000000000ADAI020005900358              12042233         0000000000012528001252800                                                                                                                                                                                                                                                                                                                                                        
41.30 00012615000328937                        00002000000072000000001                    000000000                    2021010400000000560000358110630617   0000000000000000000000000000ADAI020005900358              12042233         0000000000012528001252800                                                                                                                                                                                                                                                                                                                                                        
41.20 00012615000328937                        00003358              12042240         00000000308UNI                 0000000   000000308000000000000000000   000000000   0000000000000000010000822360020210104                    0000000000               00001                                                                                                                                                                                                                                                                                                                                                        
41.30 00012615000328937                        00003000000044000000001                    000000000                    2021010400000000560000358110630457   0000000000000000000000000000ADAI020006500358              12042240         0000000000011748001174800                                                                                                                                                                                                                                                                                                                                                        
41.30 00012615000328937                        00003000000044000000001                    000000000                    2021010400000000560000358110630754   0000000000000000000000000000ADAI020006500358              12042240         0000000000011748001174800                                                                                                                                                                                                                                                                                                                                                        
41.30 00012615000328937                        00003000000044000000001                    000000000                    2021010400000000560000358110630761   0000000000000000000000000000ADAI020006500358              12042240         0000000000011748001174800                                                                                                                                                                                                                                                                                                                                                        
41.30 00012615000328937                        00003000000044000000001                    000000000                    2021010400000000560000358110630778   0000000000000000000000000000ADAI020006500358              12042240         0000000000011748001174800                                                                                                                                                                                                                                                                                                                                                        
41.30 00012615000328937                        00003000000044000000001                    000000000                    2021010400000000560000358110630785   0000000000000000000000000000ADAI020006500358              12042240         0000000000011748001174800                                                                                                                                                                                                                                                                                                                                                        
41.30 00012615000328937                        00003000000044000000001                    000000000                    2021010400000000560000358110630792   0000000000000000000000000000ADAI020006500358              12042240         0000000000011748001174800                                                                                                                                                                                                                                                                                                                                                        
41.30 00012615000328937                        00003000000044000000001                    000000000                    2021010400000000560000358110630808   0000000000000000000000000000ADAI020006500358              12042240         0000000000011748001174800                                                                                                                                                                                                                                                                                                                                                        
41.20 00012615000328937                        00001358              12051711         00000000144UNI                 0000000   000000144000000000000000000   000000000   0000000000000000010000457920020210104                    0000000000               00001                                                                                                                                                                                                                                                                                                                                                        
41.30 00012615000328937                        00001000000036000000001                    000000000                    2021010400000000560000358110630464   0000000000000000000000000000ADAI020000900358              12051711         0000000000011448001144800                                                                                                                                                                                                                                                                                                                                                        
41.30 00012615000328937                        00001000000036000000001                    000000000                    2021010400000000560000358110630815   0000000000000000000000000000ADAI020000900358              12051711         0000000000011448001144800                                                                                                                                                                                                                                                                                                                                                        
41.30 00012615000328937                        00001000000036000000001                    000000000                    2021010400000000560000358110630822   0000000000000000000000000000ADAI020000900358              12051711         0000000000011448001144800                                                                                                                                                                                                                                                                                                                                                        
41.30 00012615000328937                        00001000000036000000001                    000000000                    2021010400000000560000358110630839   0000000000000000000000000000ADAI020000900358              12051711         0000000000011448001144800                                                                                                                                                                                                                                                                                                                                                        
41.99 00012615000328937                        00030002000011000000003                                                                                                                                                                                                                                                                                                                                                                                                                                                                                                                                                  
99.00 FGE50LMALV    M41           20210104084611238817600000025                                                                                                                                                                                                                                                                                                                                                                                                                                                                                                                                                         
