00.00 FGE50LMALV    EXTRACT_51    20210107092447239499305.00LMPT0000M51       FGX10     Expedi\ão  N¢: 00078010                                                         358010003           00000000                                                            
51.00 21000633000358O009          38112031                      CC2   1202101080000O009          12101001220210105003000000000007801020210107092332100           PREFATURADO                       PREFATURAD   PREFATUR           1PREFATURADO      2100002093 
51.01 21000633000358O009          38112031                           3                                                 00000000                                   00000000                                                                        ULMALVDBAT    
51.05 21000633000358O009          38112031                      CDTICIRLDATCDATP                                                                      20210105                                                                                                  
51.05 21000633000358O009          38112031                      PRIO            NO                                                                                                                                                                              
51.30 21000633000358O009          38112031                      00000                 00000000000 00000000000                       0000000005600003585521138390000000055211383000           0000000000000000000P     000000000                  00000000   0000
51.31 21000633000358O009          38112031                      00000                 000000                         00000023600                                      0027729    0000000000000000                                0000000                        
51.20 21000633000358O009          38112031                      0000100436271         003276006138031    000000002UNI1000000002 00000000000        000000000000000                                                       00000000000000000000000000000          
51.27 21000633000358O009          38112031                      000012222ARTBCDCLLICLREFBMODULO SUP 768X450 BCO             385467                             385467 MOLEIRO                     436271                                                        
51.99 21000633000358O009          38112031                      00010000000400001000000200000010000002360000000023600000                                                                                                                                        
51.00 21000634000358O009          38112031                      CC2   1202101080000O009          12101001220210105003000000000007801020210107092332100           PREFATURADO                       PREFATURAD   PREFATUR           1PREFATURADO      2100002094 
51.01 21000634000358O009          38112031                           3                                                 00000000                                   00000000                                                                        ULMALVDBAT    
51.05 21000634000358O009          38112031                      CDTICIRLDATCDATP                                                                      20210105                                                                                                  
51.05 21000634000358O009          38112031                      PRIO            NO                                                                                                                                                                              
51.30 21000634000358O009          38112031                      00000                 00000000000 00000000000                       0000000005600003585521138460000000055211384000           0000000000000000000P     000000000                  00000000   0000
51.31 21000634000358O009          38112031                      00000                 000000                         00000073600                                      0129920    0000000000000000                                0000000                        
51.20 21000634000358O009          38112031                      0000282032913         003276000618034    000000003UNI1000000003 00000000000        000000000000000                                                       00000000000000000000000000000          
51.27 21000634000358O009          38112031                      000022222ARTBCDCLLICLREFBMODULO SUP 896X450 BCO             395301                             395301 TRINDADE                    82032913                                                      
51.20 21000634000358O009          38112031                      0000382032916         003276000618065    000000001UNI1000000001 00000000000        000000000000000                                                       00000000000000000000000000000          
51.27 21000634000358O009          38112031                      000032222ARTBCDCLLICLREFBMODULO COLUNA 2272X600 BCO         395301                             395301 TRINDADE                    82032916                                                      
51.99 21000634000358O009          38112031                      00020000000800001000000400000020000009300000000073600000                                                                                                                                        
99.00 FGE50LMALV    M51           20210107092447239499300000022                                                                                                                                                                                                 
