00.00 FGE50LM0LV    EXTRACT_80    20210217090740210028005.00LMPT0000M80       FGX10     Movimentos diversos actividade                                                  358010003           00000000                                                                                                                                                                                                                                                                                                                                                                                                                    
80.00 2021021709052720210217EM680+I     835611                        000000006358              81989143         00                 000000001ARRB010006420                    0000000005600000358100047940000000000000000205822        120000209000ULM999HNOVUVC                                                                                                                                                                                                                                                                                                                                                        
80.00 2021021709054320210217EM680+I     835612                        000000001358              00014411         00                 000000001ARRW000000000                    0000000005600000358100104430000000000000000101           120000498000ULM999HNOVUVC                                                                                                                                                                                                                                                                                                                                                        
80.00 2021021709055520210217EM680+I     835613                        000000064358              19309143         00                 000000004ARRA100001520                    0000000000445478           0000000000000000              000000000000ULM999HNOVUVC                                                                                                                                                                                                                                                                                                                                                        
80.00 2021021709061720210217EM680+M     835614                        000000008358              19309171         00                 000000002ARRW000000000                    0000000005600000358100136800000000000000000              000000000000ULM999HNOVUVC                                                                                                                                                                                                                                                                                                                                                        
80.00 2021021709062620210217EM680+M     835615                        000000028358              00436245         00                 000000001PVAO052005840                    0000000000484344           0000000000000000              000000000000ULM999HNOVUVC                                                                                                                                                                                                                                                                                                                                                        
80.00 2021021709063820210217EM680+M     835616                        000000004358              19099745         00                 000000001ARRB190004410                    0000000000210762           0000000000000000              000000000000ULM999HNOVUVC                                                                                                                                                                                                                                                                                                                                                        
99.00 FGE50LM0LV    M80           20210217090740210028000000006                                                                                                                                                                                                                                                                                                                                                                                                                                                                                                                                                         
